:1000000097F10000938181FF17010200130181FF26
:08001000EF7090536F00000037
:1000180097E700009387077F83A6070017E700008C
:100028001307077E23A0A70083270700638805001E
:1000380003A6050023A0F5002320C70013850600AA
:100048006780000097E700009387477B83A6070037
:1000580017E700001307477A23A0A70083270700A4
:100068006388050003A6050023A0F5002320C70028
:10007800138506006780000097E7000093870779DB
:1000880003A7070023A0A70097E700009387C77777
:1000980023A0B7003335E000678000001305200077
:1000A80067800000130101FF23248100232611002B
:1000B8001307B000138405006302E50E93070500DB
:1000C800636CA70613074000930606006304E51057
:1000D800130760006316E50883A70500732630340C
:1000E80013D7D7001377C7073387E600032707001E
:1000F80093D7C70093F7370093568700130510006E
:100108009375F70F93F6F60F638AA70093570701C5
:10011800135787012301F600A301E600A300D600C8
:100128002300B6008320C100130544000324810086
:1001380013010101678000003707008093067700EC
:10014800630CD50E1307B700138505006396E714F3
:100158008320C1000324810013010101678000008E
:1001680013072000631AE50297E700009387076AE0
:1001780083A70700638007020324810017E70000B4
:10018800130787688320C100832607001301010134
:10019800678007006F0000006F00000097E700000D
:1001A8009387C76583A707006384070217E70000E2
:1001B8001307876403250700E78007008320C10031
:1001C8001305440003248100130101016780000026
:1001D8006F00000083A705007326303413D7C700CB
:1001E80013773700930510006304B708034516001A
:1001F800034806008345260003473600131585008B
:1002080033650501139605013366A60013178701A8
:100218003367C70093D757008320C10013054400F4
:1002280093F7C70703248100B386F60023A0E600EE
:10023800130101016780000097E700009387875C3E
:1002480083A707006384070217E700001307475BCB
:1002580003250700E78007008320C1001305040079
:100268000324810013010101678000006F00000072
:10027800034716008345060037460000131787001A
:1002880033F6C7003367B700E31606F813170701FC
:10029800135707416FF01FF86FF01FF0130101FFAC
:1002A8002324810023229100130405009384050070
:1002B8002326110023202101EF0040519387046079
:1002C80033E7870013773700631A0706130714000C
:1002D8003387E74013373700631207061307040014
:1002E8001306046283260700130747009387470015
:1002F80023AED7FEE318C7FE37190000130509C25D
:10030800930504003385A40013060062EF50D02C37
:10031800130509C43385A40093050002EF60C015D6
:100328008320C100032481008324410003290100A4
:100338001305000013010101678000001307040082
:1003480013060462834607001307170093871700F4
:10035800A38FD7FEE318C7FE6FF01FFA130101F74A
:10036800232481082320210913040500138905008B
:100378001305010093050002232611082322910882
:1003880023200100930406002322010023240100F6
:100398002326010023280100232A0100232C010021
:1003A800232E01002320010223220102232401021B
:1003B8002326010223280102232A0102232C0102F9
:1003C800232E0102EF60400B930501001305010085
:1003D80013060002EF505020938504001305010214
:1003E80013060062EF50501F930501001305010426
:1003F80013060004EF501037930601061386040015
:100408009305010013050400EF0090109305040004
:100418001305010613060062EF50101C13050900AE
:10042800130601049306000493050002EF50007EB2
:100438008320C10803248108832441080329010873
:1004480013050000130101096780000013010194DE
:100458002326316B9309050013050100232E116A29
:10046800232C816A232A916A2328216B130406000E
:1004780013890500B7140000EF00D060938504C20B
:10048800B305B4001306000213050102EF705019FA
:10049800930501001305010413060004EF50902C86
:1004A800930601061306046093050100130501086D
:1004B800EF001006930501081306006213050900F2
:1004C800EF20C019930605009305090013050106DE
:1004D8001306006213890600EF501010938504C4B8
:1004E8009376F90FB305B40013050104130600024F
:1004F800EF20402713850900130601049306000422
:1005080093050002EF5080708320C16B0324816B38
:100518008324416B0329016B8329C16A13050000F9
:100528001301016C67800000130101CD232481327F
:1005380023202133232A51311304410F130930009A
:10054800B71A0000232E313123267131232EB12F03
:100558002326113223229132232C41312328613161
:1005680023248131232291312320A131232AB10070
:100578002328C100232EA100232C01009309C12E9A
:10058800938D0AD0B30B894083478101032DC101A4
:10059800930400002326F1006F00C0012390F600A9
:1005A8006398AE209384140093074000130D0D2028
:1005B800638AF4168327010113F6F40F638E071E6E
:1005C80093060600832541010326C1001305010295
:1005D800EF50505E93053000130504001306010226
:1005E800EF50C00A930C0000130704009385FAFF2C
:1005F8001305001003461700034E070093961C00CE
:1006080093178600B3E7C701B3F7B70093970701BD
:1006180093D70741135E4600B306DD000346270063
:10062800938E1C0013073700E3DAFDF61316460015
:1006380093971C003366C601B307FD0093861C0020
:1006480063C8CD002390C700E38EA6F4938C060000
:10065800E392E9FA130F801F130A2000138CFAFFA4
:10066800337B2F0363040B02330F6F41130701021F
:1006780093070F2D338FE70003474FE0230AE10E5E
:1006880063164B0103475FE0A30AE10E93051000D0
:100698003305640113060102EF40507F13951C00D7
:1006A800930E0010130F8B0A3305AD00B38E9E41D5
:1006B800930604009305000003C6160003C706004E
:1006C8009392150093178600B3E7E70003C7260047
:1006D800B3F78701939707011356460093863600B0
:1006E8001317470093D70741B3025500938F0500AE
:1006F800B383DB003367C70063C6FD002390F200B5
:10070800938F150063EEDF07B38CFC019307F00F9E
:10071800E3F897F59384140093074000130D0D2018
:10072800E39AF4E8032781018326C10193870A80AD
:1007380013071700B387F600232CE100232EF100DE
:10074800E31497E48320C1320324813283244132A5
:10075800032901328329C131032A8131832A413196
:10076800032B0131832BC130032C8130832C413082
:10077800032D0130832DC12F130101336780000041
:1007880093971F00B307F50093851F0063DAED0008
:1007980093850F00E3727FF2938F05006FF0DFF609
:1007A8002390E700E3FAD5FFE3787FF06FF0DFFEF0
:1007B800938C0E006FF09FE78326C10083254101CB
:1007C80013050102EF50103F6FF0DFE013010181C4
:1007D800B7D2FFFF2322917E938202F5B74400002F
:1007E800B7C7FFFF2326117E2324817E232E317D68
:1007F800232A517D2328617D2324817D232EB17BEB
:100808002320217F232C417D2326717D2322917D66
:100818002320A17D138B077C3301510013870484A7
:1008280093060102330767013307D70093860484D0
:10083800B386F60093070102B387F6002324F1007C
:1008480093870500232EF10083278100930D05006F
:100858002326E1001305070023A0077C23A2077CB9
:1008680023A4077C23A6077C23A8077C23AA077C4C
:1008780023AC077C23AE077C23A0077E23A2077E38
:1008880023A4077E23A6077E23A8077E23AA077E24
:1008980093050002232CB1011304070023AC077E43
:1008A80023AE077EEF50503D930504001305040066
:1008B80013060002EF50006B37ECFFFF93870484A8
:1008C800B387870113070102B7EAFFFF13840A8081
:1008D800338CE70093870484B38787003384E70069
:1008E80093093000232A810123280100B38D894010
:1008F800834701013747000013070784938A0700DD
:10090800B7D7FFFF3307F70093070102B307F700D4
:10091800032D4101930400002324F100130A841FCE
:100928006F00C0012390F60063100F3F93841400FA
:1009380093074000130D0D20638CF4188325C10024
:100948000325810093860A0013F6F40FEF509026D2
:10095800032681009305300013050400EF4010536F
:10096800B71500001385F5FF13070400130B0000EB
:10097800938505D01308001003461700834E07001F
:1009880093161B0093178600B3E7D701B3F7A700A8
:100998009397070193D70741935E4600B306DD009E
:1009A80003462700130F1B0013073700E3DCF5F697
:1009B8001316460093171B003366D601B307FD00D4
:1009C80093061B0063C8C5002390C700E38006F7A1
:1009D800138B0600E312EAFA37190000130F801F81
:1009E800930B09D0B37C3F0363860C04B727000040
:1009F8001307010293870784B387E700330F9F41EA
:100A0800338FE70183460F803716000093070604EB
:100A180093050102B387B700130720002380D7008E
:100A2800639AEC0003471F8093071604B387B70047
:100A38002380E70003268100930510003305940105
:100A4800EF40D04413151B00930E0010138F8C0A2F
:100A58003305AD00B38E6E41930604009305000084
:100A6800930FF9FF03C6160003C7060093931500FA
:100A780093178600B3E7E70003C72600B3F7F7012B
:100A880093970701135646009386360013174700BD
:100A980093D70741B303750093820500B380DD0047
:100AA8003367C70063C6FB002390F30093821500E9
:100AB80063E4D223330B5B009307F00FE3F467F38F
:100AC8009384140093074000130D0D20E398F4E677
:100AD800832701018326410113871700B7170000F8
:100AE80093870780B387F6002328E100232AF100C3
:100AF800E31097E03747000037C9FFFF93070784E3
:100B0800B38727019306010237E4FFFF3389D70033
:100B18001304048093070784B38787003384D700BE
:100B2800930400001309097E9309400013F6F40F9B
:100B3800130504009305090093841400EF10004680
:100B480013040420E39434FF3747000037C9FFFF3C
:100B580093070784B387270193060102B7D4FFFFE1
:100B68003389D7009384048093070784B387970059
:100B7800B384D700130440001309097E9309800049
:100B880013060400130414001385040093050900D8
:100B98001374F40FEF10804093840420E31234FFA1
:100BA80037490000B7E4FFFF938404809307098462
:100BB800B387970013070102B384E7001385040085
:100BC800EF00104437D4FFFF13050480930709840E
:100BD800B387A700130701023385E700EF005042EF
:100BE80093070984B38787001307010237190000A8
:100BF8003384E70013090980B309240193050C0025
:100C0800130504001386040013040420EF00504663
:100C1800330C2C01E31434FF37490000B7D7FFFF2A
:100C28003714000093870780130709843307F700F8
:100C38009305048493070102B385F5003306F70092
:100C480013850500EF00904D0325C101938504002D
:100C5800EF001031930504840324810193070102F6
:100C6800B385F50013050400EF00902FB7C5FFFF0B
:100C78009385057C9307098413070102B387B7009E
:100C88001305046013060002B385E700EF704019EE
:100C9800B73200009382020B330151008320C17EDA
:100CA8000324817E8324417E0329017E8329C17D1B
:100CB800032A817D832A417D032B017D832BC17CFF
:100CC800032C817C832C417C032D017C832DC17BEB
:100CD8001301017F6780000093971200B307F500A6
:100CE8009385120063DAEB0093850200E37C1FD63C
:100CF800938205006FF01FDC2390E700E3FAD5FF2D
:100D0800E3721FD66FF0DFFE130B0F006FF05FCAA0
:100D18001301019893070500B7C2FFFF2326316727
:100D280037D5FFFFB7490000232E1166232C8166B3
:100D3800232A91662328216723225167232C816562
:100D48002328A1652324416723206167232E716529
:100D5800232A91652326B1651305058033015100C7
:100D680013870962130406003307A700130601025C
:100D78003305C7001389050093050400232CD1000F
:100D8800232EF10023200102232201022324010241
:100D98002326010223280102232A0102232C01020F
:100DA800232E0102EF00D0209305046013060002F1
:100DB80013050102EF70C006B7C4FFFF138504C016
:100DC80093870962B387A700130701023385E700F9
:100DD80093050900EF00D07537ECFFFF9387096290
:100DE800B387870113070102338CE700B7EAFFFFD7
:100DF8009387090013840A80138709629384049EE9
:100E0800938707629306010233078700B387970029
:100E18003304D70093093000B387D700232A810110
:100E2800232801002326F100338D894083470101DF
:100E38003747000013070762938A0700B7D7FFFFF9
:100E48003307F70093070102B307F700832D410129
:100E5800930400002324F100130A841F6F00C001CB
:100E68002390F600631C0F419384140093074000FD
:100E7800938D0D20638AF4188325C1000325810012
:100E880093F6F40F13860A00EF50C0520326810030
:100E98009305300013050400EF40407FB7150000AC
:100EA8001385F5FF13070400130B0000938505D085
:100EB8001308001003461700834E070093161B0003
:100EC80093178600B3E7D701B3F7A70093970701F5
:100ED80093D70741935E4600B386DD00034627009B
:100EE800130F1B0013073700E3DCF5F61316460053
:100EF80093171B003366D601B387FD0093061B00CA
:100F080063C8C5002390C700E38006F7138B06006B
:100F1800E312EAFA37190000130F801F930B09D068
:100F2800B37C3F0363840C04B727000093060102D7
:100F3800138707623307D700330F9F41330FE70149
:100F480083460F80138607E2930501023306B60035
:100F5800130720002300D600639AEC0003471F8084
:100F6800938717E2B387B7002380E7000326810041
:100F78009305100033059401EF40407113151B00D1
:100F8800930E0010138F8C0A3385AD00B38E6E411B
:100F98009306040093050000930FF9FF03C616009B
:100FA80003C706009393150093178600B3E7E7007D
:100FB80003C72600B3F7F7019397070113564600B6
:100FC800938636001317470093D70741B30375007C
:100FD80093820500B300DD003367C70063C6FB00DA
:100FE8002390F3009382150063E2D227330B5B0052
:100FF8009307F00FE3F667F3938414009307400018
:10100800938D0D20E39AF4E683270101832641019D
:1010180013871700B717000093870780B387F60078
:101028002328E100232AF100E31297E0B7470000E4
:10103800B7C4FFFF93870762B387970013070102BE
:10104800B384E700130400001309400083258101DD
:101058001376F40F1385040013041400EF001074C2
:1010680093840420E31424FFB7470000B7D4FFFF9C
:1010780093870762B387970013070102B384E700D9
:10108800130440001309800083258101130604001E
:1010980013041400138504001374F40FEF00107484
:1010A80093840420E31224FFB744000037C4FFFFF1
:1010B800130504E08325810193870462B387A700A1
:1010C800130701023385E70013068000EF00107153
:1010D8009387046213070102B3878700B387E70089
:1010E800138507002324F10037E4FFFFEF00407168
:1010F8001304048093870462B387870013070102EF
:10110800B71400003384E70093840480B309940083
:1011180037C9FFFF0326810093050C00130504005F
:1011280013040420EF00C074330C9C00E31434FF54
:10113800374A0000130409A093070A621307010243
:10114800B7D9FFFFB38787003384E7000326810000
:101158009385098093070A62B387B700B385E700D0
:1011680013050400EF00C070B7E4FFFF9384048008
:1011780093070A6213070102B3879700B384E70055
:1011880013850400EF00406B13050400EF0050695D
:1011980093070A62B3873701130701023386E70012
:1011A8009385040013850400EF004077130609E0D7
:1011B80093070A6213070102B387C7003386E70063
:1011C8009305040013050400EF005079130609C0C5
:1011D80093070A6213070102B387C7003386E70043
:1011E8009305040013050400EF005077938504006D
:1011F8008324C10113850400EF00801793050400C0
:1012080013850458EF008077B7420000330151007E
:101218008320C16703248167832441670329016709
:101228008329C166032A8166832A4166032B0166E6
:10123800832BC165032C8165832C4165032D0165D2
:10124800832DC16413010168678000009397120021
:10125800B307F5009385120063DAEB00938502006B
:10126800E37E1FD2938205006FF05FD82390E700DA
:10127800E3FAD5FFE3741FD26FF0DFFE130B0F0004
:101288006FF0DFC6B7F2FFFF130101BE232E114036
:10129800232C8140232A91402328214123263141B0
:1012A80023244141232251413301510013090500F0
:1012B8001305014093090600B71A0000138A0500B8
:1012C80037F4FFFFEF00002F930404C093870A4010
:1012D800B3879700B384270093050A581385040041
:1012E800EF00500813850AC09385090033052500CF
:1012F800EF00004C13050140EF008050130404E098
:1013080093870A40B38787003384270093850AC0F0
:1013180013060140B385250013050400EF0040556E
:1013280013050400EF00D04F130604009385040052
:1013380013050400EF005068930504001305090025
:10134800EF00502AB7120000330151008320C14139
:101358000324814183244141032901418329C14058
:10136800032A8140832A414013010142678000001B
:10137800130101FE37160000232E8100232C910053
:10138800232A210123283101232641012324510145
:101398002322610113080516938805001303056EBF
:1013A800130616D0930508EA13850800031B0500E9
:1013B800831A2500031A4500135EFB4013D7FA4031
:1013C8009356FA40337ECE003377C700B3F6C60093
:1013D800330E6E0133075701B3864601131E0E0103
:1013E80013170701135E0E011357070193960601A1
:1013F80093D60601131EBE001317B7009396B600C6
:10140800130E0E6813070768335ECE0293860668CC
:1014180083196500031985008313E50093D7F94004
:10142800B3F7C700935FF940B3873701B3FFCF0025
:101438009397070113DFF340B38F2F0193D7070169
:101448009385B500337FCF00939F0F019397B70023
:101458008314A5000314C500330F7F0093DF0F0129
:1014680093870768939FBF00938F0F6893D2F440C8
:10147800B3F2C200935EF440B3829200B3FECE0092
:1014880093920201B38E8E0093D20201939E0E01B5
:101498003357C702137EFE7F93538E00A38AC5FF7E
:1014A8009392B20093DE0E0193820268131F0F011C
:1014B800939EBE00938E0E68135F0F01131FBF002B
:1014C800130F0F6813050501B3D6C6021377F77F0C
:1014D800131E370033EEC30113575700238BC5FF84
:1014E80093F6F67F93936600B3D7C7023367770006
:1014F800A38BE5FE13DEA60093D62600238CD5FE2B
:1015080033D7CF0293F7F77F93961700B366DE00C1
:1015180093D77700A38CD5FE1377F77F131E470068
:10152800B3D6C202B3E7C701238DF5FE13574700B0
:10153800B3D7CE0293F6F67F939E76003367D70132
:1015480013DE9600A38DE5FE93D61600238ED5FEF6
:10155800335FCF0293F7F77F139727003367EE00C7
:1015680093D76700A38EE5FE137FFF7F13175F00F5
:10157800B3E7E700135F3F00238FF5FEA38FE5FF76
:10158800E39605E31388051693880820E31C03E116
:101598000324C10183248101032941018329010115
:1015A800032AC100832A8100032B41001301010291
:1015B80067800000130101FE37130000232E81000D
:1015C800232C9100232A21012328310123264101BC
:1015D8002324510123226101138E0516930E050061
:1015E800138F056E130313D013060EEA93880E00AB
:1015F800034586008342760003495600034A4600A5
:1016080013179500939212009319AA00B3E2E2000F
:10161800135A1A0013177900336747011377F77FB6
:101628003307670283463600834766008344160003
:10163800034426008343960093962600034B060036
:101648008345A600B3E6360193DA7700935949003B
:1016580093974700B3E73701939F8400131854000A
:101668001359250093D43400139563001354640070
:1016780093F7F77FB3876702B3EF6F01336898007A
:10168800B3E68600B3E252019395350093D3530035
:101698003365250113070740938808011357B700DE
:1016A800B3E5750093FFFF7F1378F87F93F6F67F15
:1016B80093F2F27F1375F57FB38F6F02239BE8FED9
:1016C8009387074093D7B700239CF8FE1306B6000C
:1016D80033086802938F0F4093DFBF002398F8FF09
:1016E800B3866602130808401358B800239908FF08
:1016F800338762029386064093D6B600239AD8FEB3
:10170800330565029307074093D7B700239DF8FE7A
:10171800B3856502130505401355B500239EA8FE41
:101728009385054093D5B500239FB8FEE312C6ED17
:10173800130E0616938E0E20E318CFEB0324C10177
:10174800832481010329410183290101032AC1005E
:10175800832A8100032B41001301010267800000E6
:10176800130101FF2324810023229100232021015A
:10177800232611001304050093840500130905604E
:10178800938504001305040013040418EF00004FA8
:1017980093840420E31624FF8320C10003248100DE
:1017A800832441000329010013010101678000001F
:1017B800130101FF2324810023229100232021010A
:1017C800232611001384050093040500138905607E
:1017D800930504001385040013040418EF008050D7
:1017E80093840420E31624FF8320C100032481008E
:1017F80083244100032901001301010167800000CF
:10180800130101FF2326110023248100130405007E
:10181800EF00D00013050420EF005000130504402A
:10182800EF00C07F13050460032481008320C100FA
:10183800130101016F00807E130101FF23261100AF
:101848002324810013040500EF00807D1305042084
:10185800EF00007D13050440EF00807C1305046051
:10186800032481008320C100130101016F00407B24
:10187800130101DE232C8120232A912023282121F2
:1018880023263121232E1120930405009389050076
:101898001309060013040020EF00C07833068900FE
:1018A800B385890013050100EF00C0771306010016
:1018B800938504001385040013040420EF00100A24
:1018C80093070480E39C07FC8320C1210324812122
:1018D80083244121032901218329C12013010122E5
:1018E80067800000130101FF2326110023248100D3
:1018F80013040500EF00900213050420EF00100206
:1019080013050440EF0090011305046003248100CF
:101918008320C100130101016F005000130101FE73
:10192800232C8100232A9100232821012326310119
:10193800232E11009309050013890500930406005E
:101948001304000033868400B305890033858900B9
:10195800EF00D0001304042093070480E39407FEEB
:101968008320C1010324810183244101032901014A
:101978008329C1001301010267800000130101FEE1
:1019880037160000232E8100232C9100232A2101E1
:1019980023283101232641011308050A130616D00E
:1019A800039A4500839965000399A5008394C500AF
:1019B800039425001357FA4093D8F9409357F940F8
:1019C80093D6F440135FF4403377C700B3F8C800E8
:1019D800B3F7C700B3F6C600337FCF00330747011C
:1019E800B3883801B3872701B3869600330F8F0079
:1019F8009398080193960601131707019397070117
:101A080093D8084193D606411357074193D7074106
:101A1800131F0F01135F0F419398580093965600B8
:101A28001317570093975700131F5F009388086890
:101A3800938606681307076893870768B3D8C802B0
:101A4800130F0F68839385008392E500839F050039
:101A580093DEF340B3FECE00B38E7E0013D3F24084
:101A6800939E0E0113DEFF403373C30093DE0E41D5
:101A780033035300337ECE00939E5E00330EFE0187
:101A880013130301938E0E6813530341131E0E01A3
:101A9800135E0E4113135300130555001303036817
:101AA800131E5E00130E0E6893850501B3D6C60299
:101AB80093F8F8019392780093D818003357C70227
:101AC80093F6F601939F660093D62600B3D7C70214
:101AD8001377F7011317270033675700335FCF02D7
:101AE80093F7F70193971700B3E7F701137FFF0107
:101AF800B3DECE02931F5F00135F3F003367E70139
:101B0800230EE5FE3357C30293FEFE0113934E00E6
:101B180093DE4E00B3E7D701230FF5FEB3E8680064
:101B2800A30E15FF335ECE029377F7019397370024
:101B3800B3E7D700A30FF5FE137EFE01336EFE0157
:101B4800A30DC5FFE31E05E50324C101832481011C
:101B58000329410183290101032AC100130101025C
:101B680067800000130101FFB718000023268100D9
:101B78001383050A938818D003C7350083C7250047
:101B880083C6150003CF050083CE45009393170045
:101B98009312470093D747001394360013D8760062
:101BA800B3E7570093D62600135E5F00135667000D
:101BB800939F2E0093F6F60193F7F701B386160369
:101BC800336E8E0033687800135717003366F601BA
:101BD800137FFF01137EFE011378F8011377F701D5
:101BE8001376F601B387170393DE3E00938606014A
:101BF8001305050193D65600231AD5FE9385550083
:101C0800330F1F039387070193D75700231CF5FE53
:101C1800330E1E03130F0F01135F5F002318E5FF38
:101C280033081803130E0E01135E5E002319C5FF57
:101C3800330717039306080193D65600231BD5FED6
:101C4800330616039307070193D75700231DF5FEA4
:101C5800B38E1E031306060113565600231EC5FE37
:101C6800938E0E0193DE5E00231FD5FFE39665F089
:101C78000324C10013010101678000003718000028
:101C880093080518130818D00397050083972500B3
:101C9800130535001356F74093D6F74033760601FF
:101CA800B3F606013307C700B387D7001317070138
:101CB800939707011357070193D707011396470016
:101CC80093568700B3E6C60093D74700A30EE5FEF8
:101CD800230FD5FEA30FF5FE93854500E396A8FADA
:101CE80067800000B7160000138605189386F6FF74
:101CF80083C7150003C705009385350093978700B0
:101D0800B3E7E700B3F7D7002310F50003C7E5FFF3
:101D180083C7F5FF130545001357470093974700FE
:101D2800B3E7E700231FF5FEE314B6FC6780000065
:101D38001307052083C705001305050193851500C2
:101D480093F71700B307F04093F717682318F5FEC9
:101D580083C7F5FF9397E70193D7F74193F7176880
:101D68002319F5FE83C7F5FF9397D70193D7F7415A
:101D780093F71768231AF5FE83C7F5FF9397C701F2
:101D880093D7F74193F71768231BF5FE83C7F5FF31
:101D98009397B70193D7F74193F71768231CF5FE7C
:101DA80083C7F5FF9397A70193D7F74193F7176870
:101DB800231DF5FE83C7F5FF9397970193D7F74146
:101DC80093F71768231EF5FE83C7F5FF93D777406F
:101DD800B307F04093F71768231FF5FEE31CA7F439
:101DE80067800000B716000013860520938616D07A
:101DF8002300050083970500130515009385050149
:101E080013D7F7403377D700B387E70093970701D5
:101E180093D707019397170093870768B3C7D7022B
:101E280093F71700A30FF5FE039725FF1358F74004
:101E38003378D80033070701131707011357070131
:101E480013171700130707683347D70213771700CC
:101E580013171700B3E7E700A30FF5FE039745FF35
:101E68001358F7403378D8003307070113170701D1
:101E78001357070113171700130707683347D702CB
:101E88001377170013172700B3E7E700A30FF5FE32
:101E9800039765FF1358F7403378D80033070701D5
:101EA80013170701135707011317170013070768BC
:101EB8003347D7021377170013173700B3E7E70044
:101EC800A30FF5FE039785FF1358F7403378D80022
:101ED80033070701131707011357070113171700D3
:101EE800130707683347D7021377170013174700FC
:101EF800B3E7E700A30FF5FE0397A5FF1358F740D4
:101F08003378D80033070701131707011357070160
:101F180013171700130707683347D70213771700FB
:101F280013175700B3E7E700A30FF5FE0397C5FFA4
:101F38001358F7403378D800330707011317070100
:101F48001357070113171700130707683347D702FA
:101F58001377170013176700B3E7E700A30FF5FE21
:101F68000397E5FF1358F7403378D8003307070184
:101F780013170701135707011317170013070768EB
:101F88003347D7021377170013177700B3E7E70033
:101F9800A30FF5FEE31EB6E467800000130101F706
:101FA8002324810893060600130405001386050000
:101FB800130501009305000823261108EF4080450A
:101FC8009305010013050400EF0000638320C10896
:101FD800032481081301010967800000130101F738
:101FE80023248108930606001304050013860500C0
:101FF800130501009305000823261108EF408041CE
:102008009305010013050400EF00405F8320C10819
:102018000324810813010109678000006F00801FF5
:102028006F00802B130101FE232A91002328210130
:10203800232631012324410123225101232E11009B
:10204800232C810017CA0000130A4A43930945004C
:10205800138945009304460097CA0000938A0A4AE8
:1020680003140A001386C4FF9305C9FF1385C9FF2B
:1020780093060400EF000038B306804093960601EB
:1020880013860400930509001385090093D60641B9
:10209800130A2A00EF000036938989001309890082
:1020A80093848400E31E5AFB8320C1010324810129
:1020B80083244101032901018329C100032A8100E6
:1020C800832A41001301010267800000130101FF08
:1020D800232481002322910023202101232611009B
:1020E80013040500130905209304905403150400F4
:1020F8001304240033059502EF008050231FA4FE2B
:10210800E31624FF8320C1000324810083244100B7
:10211800032901001301010167800000130101FF79
:102128002324810023229100232611001304050093
:10213800930405200315040013042400EF00C04E87
:10214800231FA4FEE31894FE8320C100032481000A
:10215800832441001301010167800000130101FF7E
:102168002326610123247101130000009307000056
:102178009308100013080020B386F5003307F60013
:10218800039B0600831B07001300000013000000D8
:102198001300000033AB1BA13307F50023106701C0
:1021A80093872700E39A07FD032BC100832B810047
:1021B8001301010167800000130101FF232661015B
:1021C80023247101930700009308100013080020CE
:1021D800B386F5003307F600039B0600831B070050
:1021E80013000000130000001300000033AB1BA114
:1021F800130000003307F5002310770193872700A9
:10220800E39807FD032BC100832B81001301010113
:1022180067800000130101FE232C31012326910160
:10222800232E2101232A610123287101930910001B
:10223800930C000897C600009386461C1306F00FFF
:102248009305100013090000139719003387E6005F
:10225800B3872C010317070093891900637AF906DD
:102268009302090093921200B3025500039B0200E7
:10227800330399011313130033036500831B030011
:1022880013000000130000001300000033ABEBA0A4
:102298002390620113000000231073011309190031
:1022A800E360F9FC33099901E37026FB93DC1C0019
:1022B800E3EA95F90329C10183298101032B41012F
:1022C800832B0101832CC1001301010267800000E8
:1022D800138907006FF05FF7130101FE232C31010A
:1022E8002326910193050500232E2101232A61014C
:1022F800232871019309F007930C200097C600006A
:102308009386C60F1306F00F130500081309000083
:1023180093971900B387F60003970700B3872C013A
:102328009389F9FF3307E0406372F90C93020900BF
:1023380093921200B3825500039B02003303990164
:102348001313130033836500831B0300130000007D
:10235800130000001300000033ABEBB023906201C0
:10236800130000002310730113091900E360F9FC3E
:1023780033099901E37E26F9939C1C00E37895F9CB
:10238800B71600001309000093070000938676CE65
:102398001306F00F93971700B387F500039B070008
:1023A800938B0600130000001300000013000000C8
:1023B80033AB0B9013000000931719003387F50017
:1023C800231067019307190013890700E374F6FCCB
:1023D8000329C10183298101032B4101832B0101B9
:1023E800832CC100130101026780000013890700D4
:1023F8006FF01FF2130101FD23269102232421030C
:1024080023223103232041038394050003992500E7
:1024180083190600031A2600232E5101232C61017B
:10242800232A71012328810123269101938A04001C
:10243800130B0900938B0900130C0A00938C0600F8
:1024480033290A9013000000130000001300000055
:1024580013000000B32C09901300000013000000C3
:102468001300000013000000B3A4999123109500F5
:1024780013000000B32A0C901300000013000000A2
:10248800130000001300000033AB5B9123116501BA
:102498008324C1020329810283294102032A0102FC
:1024A800832AC101032B8101832B4101032C0101E4
:1024B800832CC1001301010367800000130101FE92
:1024C800375F5555232E8100232C9100232A2101A3
:1024D8002328310123264101930F0520130F5F554F
:1024E80083C6150003C6050083C7250003C735004A
:1024F80093968600B3E6C60093970701B3E7D70023
:10250800131787013367F70093571700B3F7E701ED
:102518003377E701B387E70013DA270013D34700BF
:1025280093D9670093D8870013D9A70013D8C70099
:1025380093D4E70013D6070113D4270193D6470194
:1025480093D3670113D7870193D2A70193DEC701FD
:1025580013FE3700137A3A001373330093F93900E6
:1025680093F83800137939001378380093F434005D
:10257800137636001374340093F6360093F3330061
:102588001377370093F2320093FE3E0093D7E701AA
:10259800330E4E4133033341B38828413308984002
:1025A80033068640B386764033075740B387FE40EC
:1025B8002310C501231165002312150123130501FA
:1025C8002314C5002315D5002316E5002317F500AD
:1025D8001305050193854500E314F5F10324C101B2
:1025E800832481010329410183290101032AC100B0
:1025F80013010102678000006FF05FEC6FF01FECC1
:1026080037F7FFFF93071730B307F5021307F72FC4
:102618009397070193D70741B387E7023385A7004C
:102628001355054167800000B75700009387F7EB03
:10263800B307F50237070002B387E7003717000032
:10264800130717D093D7A741B387E7023305F5409F
:102658001315050113550541678000006300061036
:102668009307F6FF130770006378F700B367B500A8
:1026780093F73700638807023306C5001307000085
:1026880083C70500834605001305150093851500CB
:10269800B3C7D7003367F700E314C5FE3335E0004E
:1026A800678000001373C6FF930705009386050033
:1026B8003303A3001308000003A7060083A807003C
:1026C800938747009386460033471701336807010D
:1026D800E39467FE13578800935708013367E800AF
:1026E8003367F7001358880133670701937636007C
:1026F8001377F70F9377C6FFE38206FAB386F500E0
:102708003308F50083C806000348080093861700BD
:102718003348180133670701E3F2C6F83308D500D8
:10272800B386D5000348080083C6060093872700B0
:10273800B346D8003367D700E3F2C7F6B385F50090
:10274800B307F50083C6050083C70700B3C7F600C3
:102758003367F7003335E000678000001305000099
:1027680067800000B306D04093F6F60F63000612A8
:102778009307F6FF130730006376F70EB367B500CB
:1027880093F737006390070E93871500B307F5405A
:1027980093B737006398070C1393860013970601C5
:1027A80033E366003363E30093978601137EC6FF25
:1027B8003363F3001307050013880500330EAE00DA
:1027C80083280700832708001307470013084800D9
:1027D800B3C7F800B3F76700B3C71701232EF7FE96
:1027E800E310C7FF137736009377C6FF6300070A25
:1027F800B308F5003387F50003C308000347070053
:10280800138817003347E30033F7E6003343E30048
:1028180023806800637CC8063303050133880501FB
:1028280083480300034708009387270033C7E8005D
:1028380033F7E600B3C8E8002300130163F8C704C0
:102848003305F500B387F5000347050083C7070084
:10285800B347F700B3F7F6003347F7002300E50066
:10286800678000003306C5000347050083C70500DD
:102878001305150093851500B347F700B3F7F60065
:102888003347F700A30FE5FEE310C5FE678000009D
:102898009307100063EAC504B387C702B3D6F502ED
:1028A800E3FCC6FE638E0702930890006F00800069
:1028B800B3D6F50213F7F60F1308770313070703C8
:1028C800130515001377F70FB3F5F502B3C7C70261
:1028D80063D4D8001377F80FA30FE5FEE39A07FC3B
:1028E8002300050067800000938605006FF0DFFB7A
:1028F80017C80000130808F0930790008328080001
:102908003386A54063F0A724930710009306900030
:1029180013972700B307F700939717003357F5026B
:10292800E3E8E6FE930EA000130E90003353F50281
:10293800938818009376F30F138776033375F5029F
:10294800938606031377F70FB3C7D70363446E0064
:1029580013F7F60FA38FE8FEE39A07FC238008001D
:102968001305000297C60000938606D9371700E0C2
:102978008327C70293F70701E39C07FE9386160097
:102988002328A70203C50600E31405FE17C50000A7
:10299800130505E98346050093080500371700E08D
:1029A800638006028327C70293F70701E39C07FEAB
:1029B800938818002328D70283C60800E39406FEEC
:1029C80013079000832808009307100093069000CF
:1029D800637CB70013972700B307F7009397170096
:1029E80033D7F502E3E8E6FE930EA000130E90003D
:1029F80033D3F502938818009376F30F1387760381
:102A0800B3F5F502938606031377F70FB3C7D70319
:102A180063446E0013F7F60FA38FE8FEE39A07FCF2
:102A2800238008009305000297C600009386C6CD50
:102A3800371700E08327C70293F70701E39C07FED7
:102A4800938616002328B70283C50600E39405FE83
:102A58008346050097C50000938585DC371700E09D
:102A6800638006028327C70293F70701E39C07FEEA
:102A7800938515002328D70283C60500E39406FE34
:102A88001307900083250800930710009306900011
:102A9800637CC70013972700B307F70093971700C5
:102AA8003357F602E3E8E6FE1303A000930890000C
:102AB8003358F602938515009376F80F138776033B
:102AC8003376F602938606031377F70FB3C76702C8
:102AD80063C4080113F7F60FA38FE5FEE39A07FC1A
:102AE800238005001306000297C600009386C6C21D
:102AF800371700E08327C70293F70701E39C07FE17
:102B0800938616002328C70203C60600E31406FEB0
:102B18008346050017C60000130686D0371700E065
:102B2800638006028327C70293F70701E39C07FE29
:102B3800130616002328D70283460600E39406FEF0
:102B480067800000930710006FF0DFDD1307C502F0
:102B58008327070093F70701E39C07FE2328B502A4
:102B6800678000008346050063820602371700E08D
:102B78008327C70293F70701E39C07FE1305150097
:102B88002328D70283460500E39406FE67800000E9
:102B9800B71700E01307300023A0E70067800000A4
:102BA80083270500130101E8232A21172328F10AA6
:102BB800832745002328311723245117232AF10A94
:102BC8008327850023226117232071172328F1000A
:102BD8008327C500232E8115232C9115232CF10A58
:102BE80083270501232AA1152328B115232EF10ACD
:102BF80083274501232E8116232C91162320F10CBF
:102C080083278501232641172322F10C8327C50139
:102C18002324F10C832705022326F10C8327450280
:102C28002328F10C83278502832D0503832C0506B1
:102C3800232AF10C8327C502032C4506232CF10C0B
:102C480083274503232AF10083278503232EF100D8
:102C58008327C5032320F10283270504232EF10CC3
:102C6800832745042320F10E83278504232CF100B4
:102C78008327C5042322F102832705052324F102B3
:102C8800832745052326F102832785052322F10E94
:102C98008327C5052324F10E832785062328F102FF
:102CA8008327C506232AF10283270507032B050975
:102CB800832945092326F10E83274507930B0B002B
:102CC800138D09002328F10E83278507130B0C00A9
:102CD800232AF10E8327C507232CF10E8327050825
:102CE800232CF10283274508232EF1028327850828
:102CF800232EF1048327C5082320F106832785099D
:102D08002320F1048327C5092322F1048327050A18
:102D18002324F1048327450A2326F1048327850AFF
:102D28002326F1068327C50A2328F1068327050BE6
:102D38002328F1048327450B0329050C832A450C16
:102D4800232AF1048327850B232EB10F2326A114F0
:102D58002322F1068327C50B930D090013890C0064
:102D68002324F10697B70000938747792326F100BB
:102D78008327010B0327410D8326410B0323C10B36
:102D8800032EC101832E010C032F01028323410C62
:102D98000324C10D0326810D032501010328810B9E
:102DA80083284101032CC10C832C81018322C10299
:102DB800B3C5E7000327C10F8324810C8329010EC3
:102DC800832F8102B347C30133C6C60033CEEE0159
:102DD80033C38300832E010D032F41020324810E88
:102DE8008323410EB346E5003346560033471801A6
:102DF8008322C10333489C01832C010F032CC10E8D
:102E0800B3C8340133C5EE01832401038329410388
:102E1800832E410F032F810FB3C5F501B3C676008A
:102E2800832F8103334787008323C10503240106C9
:102E38003345950133475700832CC104832241054C
:102E4800334E6E01334E8E00B3C5D5013346E601CD
:102E5800832EC106032F01073346960133488801A4
:102E6800B34C5E00032C8104032E410633439300C8
:102E7800B3C6F60183240104832F01053347E70114
:102E8800B3C6D60133437301B3C72701B3C5850160
:102E9800131A1700334CC301B3C838010323810642
:102EA80083294104B3C7770013D4F601B3C7F701E8
:102EB8003364440133489800139A16009354F70179
:102EC800B3C8A801B3E4440193D2F701139A1C00D4
:102ED800B3E242013345350113DAFC01B3C9680096
:102EE80093931700B3637A00135FFC01139A1900D8
:102EF8003348B80133455501931F1C00336F4F0108
:102F080013DAF901B36FFA01131E1500135AF80109
:102F1800935EF501336ECA01131A18009318160050
:102F28001353F601B3EE4E0133C6C20013DAF501AE
:102F380083224101B3681A01B3C83801B349560066
:102F4800B3C25801832A410CB3CEFE00334E9E0112
:102F5800139A1500938C0E00B3C5B300B3C37E015A
:102F6800B3CE5E01832A810C334FEF0033634301F4
:102F78003343830133C80401130C0F00B3446F01BA
:102F8800334F5E01832A8101B3C6DF00832B8102A0
:102F9800B34FB301930D030033435301832A410216
:102FA8003345A4003344AE01130D0E0033CE58014F
:102FB800930A080033487801832BC102232C11019E
:102FC800130B0500B3487501832B81030327C10F39
:102FD8009387050033C57501232CA104032501013E
:102FE800832BC103232AF106B3C7A7000325810B4E
:102FF80033CAE50013070600B345760133C9260135
:10300800938B0600232CE106832601053347A7008E
:103018000325C10133C6DB00232E7107B3CBAB00F8
:10302800832641052326710B0325010223229109DA
:103038002324A109B34BAC0003250103232C710BF6
:103048002326B109B3CCAC0003254103832B8101AE
:1030580023285101334DAD00032501042324A10D7C
:103068002322910DB3CDAD0003254104939CB400F8
:10307800232EB10F33C5AB002320A11003258104F3
:10308800935D4A0193D45401B3CAAA000325C1042D
:1030980023225111832AC1003345AB002324A110F8
:1030A80003A50A0003AD4A00232081092328A108AB
:1030B8001395C900232EA100135559011319B900FE
:1030C800232A6101232EA1092320B103232291037E
:1030D8002324A102232621031395D5002328910236
:1030E80093D4B300232A91022326A1040325810542
:1030F80093145401232C9102B346DC0093543501F8
:10310800232891049394D601232A910493543600DA
:1031180013D9F701232C9104931417002320210BB2
:103128002322910A0329C10183240102131ACA0028
:1031380093D9490133699900B3693A01832441025B
:10314800032A8102232A21090329C10233EA4401FF
:1031580083240103232E4101032A4103B364990008
:10316800232091028324810313DC2F01232E810362
:10317800336A9A008324C10313DD4E00931CCF01E8
:10318800135CC300931B4E01135F4F00135ECE0008
:10319800939ECE0113134301939DE200135BD80164
:1031A800939A3800B36EDF0133636E009393530133
:1031B80093D2220193D8D8011354B400939FEF00FF
:1031C8001318380033647400B3EFF201B3E3B401A9
:1031D800B3629D0133E80801232AD103232E61023B
:1031E800B36E7C0133635B01232C31092324410333
:1031F80023228102232871022326F103232C510262
:103208002320D10523246104232201050328C104B6
:10321800832F0105832481051316D601B36FF801A6
:103228000328410593D63600B366D600B3629800EA
:103238008324410A0328010A93D535011315D500C3
:1032480033669800032F0101032B4101832DC10828
:103258000329C10C3365B5002324C10A8325410D18
:103268000326810D1357F701939717003364F7006E
:10327800334ECB0033C72D01B347BF000323810171
:103288000329010D032641078325410E232CD10470
:10329800B3462301334CB6000329810E83258107E9
:1032A8002328A1040325C107B3CB25010329C105A0
:1032B800032801088328410833432501032901060F
:1032C8002326F105232A5104B34C2801032941067A
:1032D8002322810A2326C11133CD2801032E810818
:1032E800032981060326810B8322810CB34D2E010D
:1032F800131A66000329C10A935EA6010326410C2E
:10330800832F010B93D4720023209106131E6900AA
:103318009359760093189601935AA9010326C10F71
:103328001399920183220110B34FFF01B3EA4A01B6
:10333800130F0B00032A0106032B410B13D882013C
:1033480013158600334F6F0133E92901032BC10B95
:10335800B3691A01336AA8000325C10703280108C5
:103368009354860133456501032B010C13948200A5
:10337800B3E884003348680123241107032BC10DE7
:10338800832841080326411083258110B3EECE011E
:1033980023260113032E810833C86801032B010E6D
:1033A8009353E600939225011316260193D5E50061
:1033B80033446E0133E6C500232E51052326210B25
:1033C80023203107232241072328C10A2324A112DD
:1033D800232801130325C108232A8112032BC10EB8
:1033E8008328810183250101B34A6501032B010F5D
:1033F80003258109032EC10133CA68018328410FBF
:1034080083240102B3E25300B3C9150183254101A6
:103418008328810F832341021348F5FF33C915011F
:10342800832541078328C1061345FEFF032E0103A8
:10343800B3C81501232211098325810783280107B1
:1034480013CBF3FF8323810233C61501832541097A
:103458002324610913C4F3FF93C8F5FF93C5F4FF50
:103468008324C102832301042326810813CBF4FF9C
:103478009344FEFF032E81042320610B13C4F3FF42
:10348800134BFEFF032EC104232CC112232A910AD9
:10349800232C810A232E610B1344FEFF8324C103CE
:1034A800832341042320810C032E010593C4F4FFD8
:1034B80093C3F3FF134BFEFF032E41052322610D37
:1034C8001344FEFF032E81052324810C134BFEFFBA
:1034D800032E41032326610D1344FEFF032E8103AF
:1034E8002328810C134BFEFF032E410A232A610D6A
:1034F800139BB6011344FEFF032E810A232C810C73
:10350800232861011344FEFF032EC11023228112D8
:1035180093D6560013164E00232AC10013D6C701AE
:10352800232CC10013566C012326C1061396AB0049
:103538002328C10603260101135457001317B701A6
:103548003364C40033E7E6000326410123288100E1
:1035580013040700032781018326010793DB6B010E
:103568003367E6000326C10693974700135BCE0135
:10357800232A7107931BAC00135C130133EB67011B
:10358800B366D600232C8107139CFC00232E8107E9
:10359800232AE100232C61012328D10603264107B1
:1035A80013DC1C01139E8D01931CF30013538D0033
:1035B8008327C10703270102B36B7601B36C9C0113
:1035C80003268107336C6E0003230109B376E800F4
:1035D800B367F6000328C1023346F30103238108C9
:1035E800131D8D0193DD8D00B36DBD01032DC10940
:1035F800232A9107B37C03010323C108032801038D
:103608002324D10E83264102334DED01032EC1013F
:103618002320A10F337D03010323010A232E8107F1
:10362800337CD50083268102B3F8C8013373F301D4
:103638002322110F232E610EB3F8D5000323410B6B
:103648002328110F832841043373E3018325810B59
:1036580023267107232CF1062320B109232EC10C40
:103668002326810F232A910F232CA10F23206110D9
:10367800B3F41401832881041343FFFF832B01054E
:1036880033FF15018325C10B032C4105832C8105CC
:1036980033F575018325010C13CEFFFF8328410301
:1036A800B3FF85018325410C2322E111032FC104B7
:1036B80033F795018325810CB3F3E301032FC1038D
:1036C800B3F71501832881038325C10C832D0106D7
:1036D8002324A110B3F51501232AB1108325010D68
:1036E80013C5FDFF832DC10AB3F5E501232CB110E5
:1036F800032F01048325410D2328F1108327410658
:10370800B3F5E501232EB11093C5FDFF832D810D7F
:10371800032DC1052326E11033FFDD01832D41125E
:1037280013C7F7FF2320E112B3FDAD01032781067C
:103738000326010B2322B113032BC112832C811200
:10374800832B4113931DEB01135C2B00032B0113F7
:10375800232681091348FDFF135C9B0013DD2C0011
:10376800131B7B01939CEC012324910923286109F5
:1037780033EDAD0113DB9B00832D8108232E6109F6
:103788002320A10D13DB9A01032DC108939A7A0017
:103798002320510B935A9A01232A510B931A99000B
:1037A80013597901232E210B33EDAD01032941086B
:1037B8009346F7FF939C7B011347F6FF931B7A0010
:1037C80003268113B3EC8C012322A10D032C410B9A
:1037D80033ED6B01032B010A13DA790193999900F0
:1037E800232C310BB3EA4A019359E9011319260036
:1037F8001356E601336B8B01832D0109032CC10B92
:10380800232CC10C2324910D03264108832CC109C4
:1038180023225109832A810BB3ED9D0133E9290144
:10382800B3EA8A012326B10D2328A10D232A610DAD
:1038380023245109232821098329810D13162600E1
:103848000329410EB3E9C9000326C10D2326310916
:103858008329810933462601232EC1080329810EB5
:103868000326010E032AC101832BC10F334626010B
:103878002320C10A032941090326C10E032B410253
:10388800832A810F33462601232AC1080326010F04
:1038980033CB6B012322610333463601232CC10845
:1038A8000326410F032B4103832B011033464601A6
:1038B800032A0102B3C46401232A9102B3CA4A014C
:1038C800032A810283244110232EC10033CA4B01ED
:1038D80023244103032A8103232051033373330133
:1038E800B3C44401032AC103232C910293C8FEFFE9
:1038F80033CA4301232E410383230104032B811080
:10390800832B0105032C4105B3437B00232071045D
:1039180083234104832C81050326010BB3C37F0055
:1039280023227104832F81048323C110032A4106B3
:10393800334FCF00B3CFF3012324F10583230111C3
:10394800832FC10483290106232AE10BB3CFF30196
:1039580083234111032F810633754501B3CB7301CE
:1039680023287105832B81113345D5018323C10A8F
:1039780033CC8B01832BC1112326F105232A810522
:10398800B3CC9B01832B4112832F410A232C910531
:10399800B3CB5B00232C710B337E2E01B3F83801B7
:1039A8000329410183290112B3F5E501032F810A97
:1039B800032B8101032AC107832401082326A10AB6
:1039C8000325C105B3F65600934AFAFFB3C5A5000F
:1039D80013CAF4FF8324C10233C57600232EB10431
:1039E800832641068325010633F6C9003377F7019C
:1039F800334E9E00032CC106B345B600B346D7002C
:103A08002326C10303278106032E01030326C106CB
:103A180093C7F2FF33787800832281072320B10609
:103A280083254107B3F7E7013348E801832B0107F2
:103A3800832941073343C301B3C8F801934DF9FF04
:103A4800934CFCFF2324010B33C8E70083240108AF
:103A580003274101B3FDCD00134DFBFF03260107EA
:103A680013CBF2FF23286102832201012322110BC9
:103A78002328A10A232401070325C107B3FCBC009E
:103A8800232E810A832581072322D10683268101DB
:103A98000328810C032F8108832FC10813CCFBFF57
:103AA80093CBF9FF8328C10C032E410D832E4108C7
:103AB8008327C109B3FBAB00337B9B0013C5FFFF12
:103AC8009344F8FF832F01091348FFFF032F410395
:103AD800337CBC00B3FA8A00337A5A009349F4FF66
:103AE80013C9F2FF13C4F8FF9342FEFF93C8FEFF09
:103AF800032E410C832E010A93C5FFFFB3CFE701C4
:103B0800032F81030323010D83274109B3F9E9003A
:103B18003379D900032701049346FEFF33CFEE0122
:103B2800032E8109832EC1039343F3FF334EEE0026
:103B38000323010C03274104B3CED7018327C10116
:103B4800337DCD001346F3FF33C3E7008327810499
:103B580003270102232C210D0329C1043347F70051
:103B680083274102232E710C83230105B3C7270144
:103B780003298102B34379002320710E0329410BE5
:103B880083234105B3C323012322710E0329810B2B
:103B980083238105B3C323010329C10B2324710E99
:103BA800B3C32D0103294101832D0101232E710A7D
:103BB800B3CC2C0103298101334DBD018323C10DF1
:103BC800B34D2C01032CC10603298107232CB10115
:103BD80033CC8B01832B0107832D01082328A101F6
:103BE800B34B7B01032B4107032D010D232A9101C0
:103BF80033CB6A01B34A2A01032AC1070329810D7D
:103C0800232A610733CB4901032AC1088329810884
:103C1800B34DB901B3F8480103294108032A010942
:103C280023268107232C6107232EB107032B010CC0
:103C3800832D410DB3F232012328110D232871077A
:103C4800832B410C8329410A33784801032AC10593
:103C5800B3CF3F018329810A832CC10C334E4E0117
:103C6800334F3F018329C10A032A010BB3C29201D2
:103C7800B3CE3E0183290106B3F32301334747013D
:103C880003294106032A010E334333012320510C33
:103C980083298106B342B8010328410833756501B9
:103CA800B3C727013348050133493A010325810881
:103CB800032A410E8329C102032C810CB3F5750137
:103CC8008328810EB3493A0133C5A500032A0103AD
:103CD8008325C1083376860133CA48013346B600C6
:103CE8008328010D2324C108032601093374B40174
:103CF80033447401B3F69601B3CB8301B3C8A8016A
:103D0800B3CDC600832C41018326C10B03260101D4
:103D180083258101032CC1062322110D2324510C74
:103D28002322010923207109832B01070328C107D6
:103D3800B3F4A401B3C46401032B4107130D0500B8
:103D4800B3420A010325810703284108B3CFDF00E6
:103D5800334FCF00832601080326010CB3C7670140
:103D6800B3C3A900B3CE9E01B3C90701334EBE0049
:103D780083278108B3CEDE00334ECE008325810C25
:103D880033495901334F8F003349A9018328410C26
:103D9800232881082326A10D13D4FE01131D1E001C
:103DA800B3CF9F00B3C3F300B3C2B2013347770167
:103DB8003364A40123269108139D1E009354FE0129
:103DC800334AB700B3E4A4013343830113DDF3019D
:103DD8009395120033431301135BF901939819006B
:103DE800B365BD0013DDF201B3425400032401069C
:103DF800131C13001357FA01B3681B01B3C8D80189
:103E080093DBF90113181900139513003367870121
:103E18003347F701931C1A009357F30113961F00B9
:103E280033E80B013365AD00B34B140113DDFF011B
:103E38000324010B832F0104B3E79701B3C7E701FC
:103E48003348C80193161F00B3C5450133CCFF00A2
:103E5800334B0401832F4105032AC103032441077F
:103E6800B366DD00135DFF013366CD0033456500A1
:103E780033463601B34CEA00334AA40033C4CF00BA
:103E8800832F8105B3C62601032F4102B3C37400F3
:103E9800B3C4DF00832F410A032381083349AF00ED
:103EA800032E8101032F8102B3CE7F00832F810A65
:103EB800334DC30003234109B349BF00334FFE000C
:103EC800032E410CB3CF5F003343E300232AD1050F
:103ED800232CF105B34E1E01832F4101032E810CC3
:103EE800232A610603238109334E0E01B3CABA009F
:103EF8003343F3002324610803234104B3CDDD00D9
:103F0800B3CFEF0033431301232A6108032381044D
:103F180033430301232C6108032341063343A300E1
:103F28002322610A032381063343B3002324610A51
:103F3800032381073343C3002328610A0323C107EE
:103F48003343D3002322610C0323C1083343730096
:103F58002324610C0323010933435300232C610CF0
:103F68000323C1023343C300232E610C032301033F
:103F78003343D3002320610E0323410333437300EB
:103F88002322610E03238103334353002324610E4C
:103F98000323C10A3343E3002326610E0323C1052B
:103FA8003343F3002328610E0323C106334313016F
:103FB800232A610E0323010733430301232C610ED7
:103FC800032341083343A300232461100323C10CB6
:103FD8003343B300232261100323C101B348130103
:103FE80003230102334803010323C1043345A3001B
:103FF80003230105B345B3000323410B3346C30034
:104008000323810BB346D3000323C10B334373004F
:104018002322611403230101334353002320611435
:10402800032301083347E3000323010C2324E1148D
:104038003347F3008327C10003A3870083A7C70082
:104048002328610C232AF10C9317CC002328F100B4
:1040580093D74C01232AF1009317BB00232CF100BE
:1040680093D75B01232EF1009357BA002320F10266
:1040780093975A012322F10293572D012324F10229
:104088009397ED001393C9012326F1029357490032
:104098002328F102232A6102139344019357C40091
:1040A800232E610203234105232CF1028327810576
:1040B80013144401232081041354D30123228104BF
:1040C800139437002324810413D4D701832741078D
:1040D80023268104131433002328810413D3F70102
:1040E8001314DF00232A81042324610613D43F011B
:1040F8000323810893971700232C81042328F106B2
:104108001314DE0183274109135E3E00232E810428
:104118002322C10713D43E00032E810923208106E0
:10412800131413002326810613D4A701232A81061A
:1041380013146E00232C81061354AE01232E81061E
:104148000324410A939767002320F10893577400CA
:104158002322F1088327810A939CCC00135C4C012D
:10416800139E97012324C10913DE77002326C10972
:10417800131E94012328C1090324010B8327410C32
:1041880033EC8C01135E8401232AC109139E870036
:10419800232CC10913DE87012322C10B131E8400BF
:1041A8000324810C8327810D2324C10B135EE400B3
:1041B8002326C10B139E27012328C10B13DEE7001A
:1041C800232AC10B131E24010324C10D8327010ECA
:1041D800232CC10B135E5400232EC10B139EB70171
:1041E8002320C10D13DE57008327810E2322C10D22
:1041F800131EB4010324410E2324C10D139E47004E
:104208002326C10D135EC40113144400232E810C10
:104218000324C10E93D7C7012320F10E93576401DD
:104228002322F10E8327010F232CC10D135B5B01A1
:10423800139EA70093D767012326F10E9317A400B6
:104248000324410F2328F10E2324C10F935714018F
:10425800232AF10E8327810F1314F40023208110E1
:10426800139EF70093D71701232EF10E83274110D1
:10427800232CC10F939BBB00139487012322811029
:104288000324811093D787002328F110135E84003C
:1042980093D72800131484019398E80123268110EA
:1042A800232E11111314E801935895001358280070
:1042B80013157501232001132326A11213987501E4
:1042C8000325011493D595002328B1129395760000
:1042D800232AB1129355960113167600232EC11284
:1042E800131695002320C114032641142324111307
:1042F800232CB11293587601931596001356750125
:10430800131527001357E7012322E1140327C109D6
:10431800232A811003248114B34377000327010A59
:10432800232CF11023220113B34257001358E40140
:104338000327010193172400032441012324C111F9
:10434800B3EB6B01336787002328E1000324810165
:10435800832CC101032B410293DABA00B36C940198
:1043680003240102131A5A0133EA4A01336B640128
:10437800832AC1020324810293DD2D01131DED0060
:10438800B36A5401232A510103240103B3EAAD019E
:10439800032D410393D949001319C901336DA401B1
:1043A80033E92901032481038329C10393D4C40079
:1043B800232EA101B369340103240104232031030E
:1043C8008329810433E4840083244104032D810577
:1043D800939FDF00B3E4340123249102832901056C
:1043E8008324C104135F3F0133EFEF01B3E43401C9
:1043F80083294105832FC105032E4106B3E9A9018D
:10440800032D0106939EDE0133EECE01B3EFAF011B
:10441800832E81062328F103832FC1061353F3014A
:10442800232C2101B3EEFE01832F010723229102E1
:10443800232631033363F301232AC103232ED10337
:10444800232C6102032D8107832F410703290108CB
:10445800032E8108B3EFAF01032DC107832DC108D7
:10446800832E8109336D2D01032941080327010B90
:104478002322F1053369C901032E0109832FC10BDA
:104488008324410CB3EDCD01032E41098329C10CCE
:104498002320A1053363DE01832E810A032E410AFE
:1044A800232621052324B105336EDE01832EC10A9C
:1044B8002328C105032E810BB3EEEE000327410B21
:1044C800232A6104232ED1053367C701032E010C6B
:1044D800232CE10493D69601B3EFCF01032E810C70
:1044E8002322F107B3E5C500B3E4C401032E810D0F
:1044F800232091063366A800B3E9C90123243107B4
:104508000329010E032DC10D032E810E832E010FE9
:10451800336D2D010329410E832D011003278110CE
:104528003369C901032EC10E832F01118324811120
:104538003363DE01832E810F032E410F832901127D
:104548002326A107336EDE01832EC10F032D8112AE
:10455800232A2107B3EEBE01832D4110032901133D
:1045680023286106B3EDED000327C110232EC107F0
:10457800232CD1073367F701832F41112320B10979
:104588002322E108B3EF9F008324C1112324F109FA
:10459800B3E4340183294112232691089344F4FF9C
:1045A800B3E9A901032DC1122328310993C9F3FFE7
:1045B800336D2D01232AA109032E811303294113E9
:1045C80003274114032381023369C901032EC11350
:1045D8003365F700832EC102B366DE00232ED108AF
:1045E80083260114032E4102032841032324A10A30
:1045F80003250103B3E816019347FBFF232C210988
:10460800232A510A13C9F2FF9342F3FF032701013A
:104618002320110B2322B10A832801022326C10A71
:10462800232C810B03264101232E910B2320710D8E
:104638002322410D2324610D2322F10E2326510D3F
:104648002328710A232E810C9343FEFF2324510E45
:1046580093CFFEFF2320E10F934EF5FF134EF8FF93
:10466800032881010325C101032BC10583264104C9
:10467800832741059342FBFF032B81032326510E19
:10468800934DF7FF9342FBFF032BC1032328510EE1
:104698000327C1049342FBFF032B8106232A510EF3
:1046A800134DFCFF9342FBFF032BC106232C510E35
:1046B80013CCFBFF9342FBFF032B0107232E510E64
:1046C800934BFAFF9342FBFF032B41072322511020
:1046D800134AF6FF9342FBFF032B81072324511053
:1046E800032601049342FBFF032BC1072326511025
:1046F800832581049342FBFF032B010823285110D3
:1047080013C4F8FF9342FBFF032B4108232A5110DF
:104718001343F8FF9342FBFF032B0106232C511090
:104728009348F5FF9342FBFF1348F6FF13C5F6FFC6
:104738001346F7FF8326010513C7F7FF232E5110F1
:1047480083278105032B410693CCFCFF93CAFAFF0C
:104758009342FBFF032B010923205112134FFFFF44
:104768009342FBFF032B41092322511293C5F5FF06
:104778009342FBFF032B81092324511293C6F6FFB2
:104788009342FBFF032BC1092326511293C7F7FF5E
:104798009342FBFF032B010A232851129342FBFF8C
:1047A800032B410A232A51129342FBFF032B810A50
:1047B800232C51129342FBFF032BC10A232E5112C3
:1047C8009342FBFF032B8108232051149342FBFFE4
:1047D800032BC108232251149342FBFF23245114B5
:1047E800032B010B8322010DB3C262012328510C54
:1047F800032B410B8322410DB3C26201032BC10B72
:10480800232A510C33FB6D01232C610D032B010C62
:10481800832D410C337D6D01032B810CB3FCBC014E
:10482800832D410E337C6C01032BC10C8322810E36
:10483800B3FB6B01032B410133FB6D01832D010B8E
:10484800B3FABA01832D410B337ABA01832D0101E2
:10485800B3F9B901832D810B3379B901832D410255
:10486800B3F4B401832D81023374B401832DC102E2
:10487800B3F3B301832D010E2322710E8323C10EDE
:10488800B3F2B201832D0103B3FFBF01832D4103AE
:10489800337FBF01832D8101B3FEBE01832DC1018A
:1048A800337EBE01832DC10D3373B301832D010205
:1048B800B3F8B801832D81043378B801832DC1047E
:1048C8003375B501832D0105B3F5B501832D410578
:1048D8003376B601832D8105B3F6B601832DC10564
:1048E8003377B701832D8103B3F7B701832DC10354
:1048F800B3F3B3012326710E832D01048323010F23
:10490800B3F3B3012328710E8323410F832D410490
:10491800B3F3B301232A710E832D01078323810F7B
:10492800B3F3B301232C710E832D41078323C10FE9
:10493800B3F3B30123207110832D81078323411022
:10494800B3F3B30123227110832DC1078323811090
:10495800B3F3B30123247110832D01088323C110FD
:10496800B3F3B30123267110832D4108832301116A
:10497800B3F3B30123287110832D0106832341115A
:10498800B3F3B301232A7110832D410683238111C8
:10499800B3F3B301232C7110832D81068323C11136
:1049A800B3F3B301232E7110832DC10683230112A3
:1049B800B3F3B3012320711283234112832D81099C
:1049C800B3F3B30123227112832DC109832381120A
:1049D800B3F3B30123247112832D010A8323C11277
:1049E800B3F3B30123267112832D410A83230113E4
:1049F800B3F3B30123287112832D810A8323411352
:104A0800B3F3B301232A7112832DC10A83238113BF
:104A1800B3F3B301232C7112832D81088323C113AF
:104A2800B3F3B301232E7112832DC108832301141C
:104A3800B3F3B30123207114832D01098323411497
:104A4800B3F3B30123227114832D41098323811405
:104A5800B3F3B301832DC10023247114938D0D0189
:104A68002326B1018323010D832D810DB3C3B30127
:104A78002328710A8323410D832D010133CDA3011E
:104A8800232AA10B33CDBC01832D810B832CC10BB1
:104A98008323410E334CBC01232C810B33CC9B0167
:104AA800832B010C832D410C2328A101B34B7B01DF
:104AB800032B810C2320710DB3CBBA01832AC10CBF
:104AC800334A6A01032B4101B3C959012326310D29
:104AD800B349690103298101832DC1012322710D85
:104AE800B3C42401232A910CB344B4010324C10D97
:104AF800832D0102232E810BB3C3830033C4B2017B
:104B0800832241022324410D2328310DB3CF5F00B6
:104B1800232EF101232C910C232E710E232A8100C0
:104B2800832D8102B34FBF01832DC1022320F103DE
:104B3800B3CEBE01832D010E232ED10D334EBE01FF
:104B4800832D01032320C10F3343B301832D410378
:104B5800232C610033C3B80183288103832DC1034B
:104B68002322610233481801232401033348B50185
:104B780003250104832D41042326010333C5A50021
:104B8800832581043346B601832DC10433C9B60099
:104B9800832601052324C10E334BB70133C6D70042
:104BA800832D41058326C10E832781052328C10251
:104BB80033C6B6018326010F832DC105232AC102FE
:104BC80033C6F6008326410F2326C10E2322A10EE9
:104BD80033C6B6012328C10E8326810F8327010619
:104BE800832D410633C6F60083260110232AC10E01
:104BF8008327010733C6B60183264110832D81061A
:104C0800232CC10E33C6B60183268110832DC1061D
:104C1800232CC10233C6B6018326C110832D410758
:104C2800232EC10233C6F60083260111832781078C
:104C3800232EC10433C6B60183264111832DC10733
:104C48002320C106B3CBF6008326811133CDB601EC
:104C58008326C111832D010833C6B60183260112AC
:104C6800832D41082320C10433C6B601832641128F
:104C7800832D81082322C10433C6B60183268112FD
:104C8800832DC1082324C10433C6B6012326C104D9
:104C98008326C112832D01090327810A8327C10AAC
:104CA80033C6B60183260113832D41092326C10685
:104CB80033C6B60183264113832D81092328C106F3
:104CC80033C6B60183268113832DC1092328C10465
:104CD80033C6B6018326C113832D010A232AC104D2
:104CE80033C6B60183260114832D410A2322C10647
:104CF80033C6B601832641142324C106B3CDE6008A
:104D080003278114B34AF7008327C10017A70000BF
:104D18001307C78A6304F7006FE08F850325C11462
:104D28008327010B930C0900232E45012320F5004E
:104D38008327410B23269502232A85022322F50087
:104D48008327010123287502232EF5032324F50068
:104D58008327810B2320D5052322C5052326F500AB
:104D68008327C10B2328F5008327010C232AF5008C
:104D78008327410C232CF5008327C10C2320F5023F
:104D88008327010D2322F5028327410D2324F502F1
:104D98008327C101232CF502832781012324F504ED
:104DA800232665048327810223209507232265078C
:104DB8002328F5048327410E23287509232AA509EA
:104DC800232CF5048327810E232A0505232EF504B9
:104DD800832701032324F506832741032326F506A9
:104DE8008327C10E2328F5068327010F232AF506FA
:104DF8008327410F232CF5068327810F232EF506E1
:104E0800832781032320F5088327C1032322F5087C
:104E18008327C1052324F508832701062326F508DF
:104E280083270104232CF508832741040324C11791
:104E38002320B50D232EF508832781042322550D41
:104E4800232EC50A2320F50A8327C104832481174A
:104E5800032941172322F50A8327C106832901174D
:104E6800032AC1162324F50A83270107832A8116FA
:104E7800032B41162326F50A83270105832B0116E8
:104E8800032CC1152328F50A83274105832C811596
:104E9800032D4115232AF50A83274106832D011581
:104EA800232CF50A1301011867800000130101FE85
:104EB800232C8100232A910023263101338FE5001A
:104EC800232E1100232821019304050013840600D2
:104ED80093090F00636ACF0A1309060063FAC5082D
:104EE800B307B94013080400B306F400B38585403E
:104EF8001305F0016F00800203AE070003A7470007
:104F08003393680093080000B3481E0133476700D5
:104F180023A0170123A2E700630AD804B307B80047
:104F28008348080013F777001317370093F787FFB4
:104F3800130307FE330EE540B387F4001308180087
:104F480093DE1800E35A03FA33D3CE01B398E8008E
:104F580003AE070003A74700B3481E0133476700A5
:104F680023A0170123A2E700E31AD8FA13040800C4
:104F780013850400B3092F41EFD09FC2138F090096
:104F880093050000E3FE29F563F8350BB387B940B4
:104F980013060400B306F400B3858540130EF00130
:104FA8006F00800283A8070003A747003318050194
:104FB8001305000033C5A8003347070123A0A70045
:104FC80023A2E700630AD604B307B6000345060028
:104FD80013F777001317370093F787FF130807FEB7
:104FE800B308EE40B387F4001306160013531500F8
:104FF800E35A08FA335813013315E50083A807006C
:1050080003A7470033C5A8003347070123A0A7001B
:1050180023A2E700E31AD6FA8320C1010324810101
:105028008324410103290101138509008329C10053
:1050380013010102678000008320C101032481015C
:10504800938905008324410103290101138509007F
:105058008329C1001301010267800000130101FECA
:10506800232821012320610113090600138B050061
:105078001306800C93050000232A91002326310192
:10508800232E1100232C81002324410123225101C6
:105098009309050093840600EF20D03C930770081D
:1050A80063F6270B930A8B08138A0A001304700807
:1050B80093070B009386090003C7170003CE270048
:1050C80003C8570003CF470003C5670083CE070016
:1050D80083C5370003C6770013178700131E0E0118
:1050E8001318880003A3060083A846003367C70186
:1050F8003368E801131505013367D70113168601D4
:105108009395850133650501B3E5E5003367A6008E
:1051180033C7E8003346B30023A0C60023A2E60045
:105128009387870093868600E39847F913850900DB
:10513800130989F7138B0A00EFD09FA6130A8A0870
:1051480063762401938A8A086FF09FF6630C090E30
:10515800930600009308F0016F00C00203280700BF
:10516800832547003316C500130500003345A80002
:1051780033C6C500938616002320A7002322C70044
:10518800630AD90493F576009395350013F786FFE3
:105198003305DB00138605FE03450500B387B840D9
:1051A8003387E900E35C06FA032807001356150065
:1051B8003315B500832547003356F6003345A8005C
:1051C80033C6C500938616002320A7002322C700F4
:1051D800E31AD9FA13777900937789FF13193700FF
:1051E800130709FEB387F900634007063397E40005
:1051F8009304000003A6070083A647008320C1018B
:105208003346960033C7E60023A2E70023A0C70071
:1052180083A749080324810137070080B3C7E70043
:1052280023A2F90883244101032901018329C1002C
:10523800032A8100832A4100032B01001301010284
:1052480067800000938709009306F00113D71400C4
:10525800B38626413357D700B39424016FF09FF9E2
:10526800130101FE232A9100232251019304060011
:10527800938A05001306800C93050000232821015A
:10528800232E1100232C81002326310123244101E0
:1052980013090500EF20101D9307700A63F6970A9B
:1052A800138A8A0A93090A001304700A93870A006A
:1052B8009306090003C7170003CE270003C8570049
:1052C80003CF470003C5670083CE070083C53700B7
:1052D80003C6770013178700131E0E0113188800E2
:1052E80003A3060083A846003367C7013368E801B3
:1052F800131505013367D7011316860193958501A8
:1053080033650501B3E5E5003367A60033C7E80058
:105318003346B30023A0C60023A2E6009387870084
:1053280093868600E39837F913050900938484F57A
:10533800930A0A00EFD0DF869389890A637694007E
:10534800130A8A0A6FF09FF6638804109306000018
:105358009308F0016F00C002032807008325470067
:105368003316C500130500003345A80033C6C50031
:10537800938616002320A7002322C700638AD4043B
:1053880093F576009395350013F786FF3385DA0099
:10539800138605FE03450500B387B8403307E900C7
:1053A800E35C06FA03280700135615003315B50009
:1053B800832547003356F6003345A80033C6C50099
:1053C800938616002320A7002322C700E39AD4FA65
:1053D80013F674001316360093F784FF930606FE3F
:1053E800B307F90063CE06041307F0013317D7009B
:1053F8009306000083A5070003A647008320C10188
:10540800B3C6D5003347E60023A2E70023A0D700A0
:105418008327490A0324810137070080B3C7E700BF
:105428002322F90A83244101032901018329C100A8
:10543800032A8100832A41001301010267800000CA
:105448009306F001B385C6401307F0003357B70041
:10545800B396C6006FF01FFA930709009306F00190
:10546800130700006FF01FF9130101FF1306800CEA
:10547800930500002324810023261100130405004E
:10548800EF20407E8320C1002324040C03248100E4
:105498001301010167800000938605008325850CB0
:1054A800130101FF130706001306800A2324810055
:1054B8002326110013040500EFF05F9F8320C1002D
:1054C8002324A40C03248100130101016780000038
:1054D8008327850C13F777001317370093F787FF97
:1054E800930607FEB307F50063C206041306F0012E
:1054F8003316D6009305000083A6070003A74700CC
:10550800B3C6B6003347C70023A2E70023A0D700DD
:105518008327450A1307800A2324E50C37070080F0
:10552800B3C7E7002322F50A678000009305F0015E
:10553800B386E5401306F0003356D600B395E50070
:105548006FF09FFB130101FE232A9100232E110007
:10555800232C810023282101232631012324410102
:105568008327860C93040600638E050A1307800AB6
:10557800138A0500130405006388E70C1307700AF3
:10558800636CF7083306FA0093080600E3FCC7FECD
:105598009309F0011309700A6F00C001032747003F
:1055A800938717003357B700A30FE4FE6366F90427
:1055B8006386170793F677009396360013F787FFED
:1055C800938506FE3388D9403387E400130414001A
:1055D800E3D605FC832547000327070093871700B8
:1055E80093951500B39505013357D70033E7E500C8
:1055F800A30FE4FEE37EF9FA330AF6406304F602E9
:1056080013850400EFD0CFD993080A009307000050
:1056180013060A006FF01FFA6F000000330AF64005
:10562800E312F6F68320C1010324810123A4F40CBC
:1056380003290101832441018329C100032A810030
:10564800130101026780000013050600EFD04FD553
:1056580093080A009307000013060A006FF05FF32F
:10566800130101FF232481002326110013040500E0
:10567800EFF01FBF9307800A8320C1002324F40C96
:105688000324810013010101678000006384050C75
:10569800130101FE23244101130A850A232C8100EA
:1056A800232A91002328210123263101232E1100CA
:1056B80093890500130405001309060093040A00E2
:1056C80013050900EFD0CFCD130609009307040096
:1056D80083260600032746009387870093DE86000B
:1056E80013DE060113D38601935887001358070168
:1056F80093558701A38CD7FF238DC7FFA38D67FE22
:10570800A38E17FF238F07FFA38FB7FE238CD7FE27
:10571800238EE7FE13068600E39CF4FA9389F9FFCB
:1057280013040A009384840A63860900130A8A0A08
:105738006FF01FF98320C1010324810183244101F3
:10574800032901018329C100032A810013010102F1
:105758006780000067800000130101FF1306800CBA
:10576800930500002324810023261100130405005B
:10577800EF20404F8320C1002324040C0324810020
:105788001301010167800000938605008325850CBD
:10579800130101FF13070600130680082324810064
:1057A8002326110013040500EFF04FF08320C100F9
:1057B8002324A40C03248100130101016780000045
:1057C8008327850C13F777001317370093F787FFA4
:1057D800930607FEB307F50063C206041306F0013B
:1057E8003316D6009305000083A6070003A74700D9
:1057F800B3C6B6003347C70023A2E70023A0D700EB
:1058080083274508130780082324E50C3707008001
:10581800B3C7E7002322F508678000009305F0016D
:10582800B386E5401306F0003356D600B395E5007D
:105838006FF09FFB130101FE232A9100232E110014
:10584800232C81002328210123263101232441010F
:105858008327860C93040600638E050A13078008C5
:10586800138A0500130405006388E70C1307700802
:10587800636CF7083306FA0093080600E3FCC7FEDA
:105888009309F001130970086F00C001032747004E
:10589800938717003357B700A30FE4FE6366F90434
:1058A8006386170793F677009396360013F787FFFA
:1058B800938506FE3388D9403387E4001304140027
:1058C800E3D605FC832547000327070093871700C5
:1058D80093951500B39505013357D70033E7E500D5
:1058E800A30FE4FEE37EF9FA330AF6406304F602F6
:1058F80013850400EFD0CFAA93080A00930700008D
:1059080013060A006FF01FFA6F000000330AF64012
:10591800E312F6F68320C1010324810123A4F40CC9
:1059280003290101832441018329C100032A81003D
:10593800130101026780000013050600EFD04FA68F
:1059480093080A009307000013060A006FF05FF33C
:10595800130101FF9306F00123248100232611007F
:1059680013040500EFF08FEF930780088320C10030
:105978002324F40C03248100130101016780000033
:105988006384050C130101FE23244101130A8508D1
:10599800232C8100232A9100232821012326310169
:1059A800232E11009389050013040500130906002E
:1059B80093040A0013050900EFD08F9E130609000F
:1059C8009307040083260600032746009387870071
:1059D80093DE860013DE060113D3860193588700F1
:1059E8001358070193558701A38CD7FF238DC7FF51
:1059F800A38D67FEA38E17FF238F07FFA38FB7FE24
:105A0800238CD7FE238EE7FE13068600E39CF4FA68
:105A18009389F9FF13040A009384840863860900B4
:105A2800130A8A086FF01FF98320C101032481013A
:105A380083244101032901018329C100032A81002C
:105A4800130101026780000067800000130101F163
:105A5800930706002324810E2322910E13040500C8
:105A6800938405001386060093850700130501003B
:105A78002320210F232E310D232C410D232A510DD4
:105A88002326110EEFF0CFFD9307800A33D9F402D5
:105A98002324F10C9307700A930A04009309810ADE
:105AA800130A090063F6970613050100EFD04F8F1C
:105AB8001307010093870A0003260700832647007F
:105AC80013078700135E8600135306019358860157
