:1000000097F10000938181FF17010200130181FF26
:08001000EF70C02C6F0000002E
:1000180097E700009387077F83A6070017E700008C
:100028001307077E23A0A70083270700638805001E
:1000380003A6050023A0F5002320C70013850600AA
:100048006780000097E700009387477B83A6070037
:1000580017E700001307477A23A0A70083270700A4
:100068006388050003A6050023A0F5002320C70028
:10007800138506006780000097E7000093870779DB
:1000880003A7070023A0A70097E700009387C77777
:1000980023A0B7003335E000678000001305200077
:1000A80067800000130101FF23248100232611002B
:1000B8001307B000138405006302E50E93070500DB
:1000C800636CA70613074000930606006304E51057
:1000D800130760006316E50883A70500732630340C
:1000E80013D7D7001377C7073387E600032707001E
:1000F80093D7C70093F7370093568700130510006E
:100108009375F70F93F6F60F638AA70093570701C5
:10011800135787012301F600A301E600A300D600C8
:100128002300B6008320C100130544000324810086
:1001380013010101678000003707008093067700EC
:10014800630CD50E1307B700138505006396E714F3
:100158008320C1000324810013010101678000008E
:1001680013072000631AE50297E700009387076AE0
:1001780083A70700638007020324810017E70000B4
:10018800130787688320C100832607001301010134
:10019800678007006F0000006F00000097E700000D
:1001A8009387C76583A707006384070217E70000E2
:1001B8001307876403250700E78007008320C10031
:1001C8001305440003248100130101016780000026
:1001D8006F00000083A705007326303413D7C700CB
:1001E80013773700930510006304B708034516001A
:1001F800034806008345260003473600131585008B
:1002080033650501139605013366A60013178701A8
:100218003367C70093D757008320C10013054400F4
:1002280093F7C70703248100B386F60023A0E600EE
:10023800130101016780000097E700009387875C3E
:1002480083A707006384070217E700001307475BCB
:1002580003250700E78007008320C1001305040079
:100268000324810013010101678000006F00000072
:10027800034716008345060037460000131787001A
:1002880033F6C7003367B700E31606F813170701FC
:10029800135707416FF01FF86FF01FF0130101FFAC
:1002A8002324810023229100130405009384050070
:1002B80023261100EF00804F9387043033E787002F
:1002C8001377370063120706130714003387E740D4
:1002D80013373700631A07041307040013060432A0
:1002E80083260700130747009387470023AED7FEEE
:1002F800E318C7FE93050400138504621306003251
:10030800EF5000121385046493050002EF50407B00
:100318008320C100032481008324410013050000C9
:10032800130101016780000013070400130604325B
:10033800834607001307170093871700A38FD7FE7C
:10034800E318C7FE6FF01FFB130101F72324810890
:100358002320210913040500138905001305010052
:100368009305000223261108232291082320010067
:100378009304060023220100232401002326010000
:1003880023280100232A0100232C0100232E010029
:100398002320010223220102232401022326010231
:1003A80023280102232A0102232C0102232E010201
:1003B800EF500071930501001305010013060002B8
:1003C800EF5000069385040013050102130600325E
:1003D800EF500005930501001305010413060004FE
:1003E800EF50C01C93060106138604009305010014
:1003F80013050400EF00C057930504001305010618
:1004080013060030EF50C00113050900130601045C
:100418009306000493050002EF40D0638320C108CF
:1004280003248108832441080329010813050000D7
:100438001301010967800000130101C72320213936
:1004480013090500130501002326113823248138D8
:10045800232291381304060093840500EF000077E7
:10046800930504621306000213050102EF609074FD
:10047800930501001305010413060004EF5000134F
:1004880093060106130604309305010013050108BD
:10049800EF00004E93050108130600301385040091
:1004A800EF1050009306050093850400130501061C
:1004B8001306003093840600EF40907693F6F40F0D
:1004C800930504641305010413060002EF10100ECF
:1004D800130509001306010493060004930500029E
:1004E800EF4050578320C138032481388324413892
:1004F8000329013813050000130101396780000042
:10050800130101CD23248132232E3131232A513185
:100518001304410F930A000093093000B717000035
:10052800232C4131232861312320A131232EB12FDF
:10053800138B0A00232611322322913223202133E0
:10054800232671312324813123229131232EA100C6
:10055800232AC100130AC12E138D07D0B38D8940F9
:10056800938A05008327C101931BAB001377FB0F08
:10057800B38777012326F10093070000938C0700C7
:10058800832741012328E100232461013717000054
:100598001309F7FF9304001013F6FC0F6384070890
:1005A800930606000326010193850A00130501023C
:1005B800EF50C044130601029305300013050400F0
:1005C800EF4040718327C100939E9C0013060400EE
:1005D800338BFE00930B000083461600834506000C
:1005E80013971B0093978600B3E7B700B3F727016B
:1005F8008345260093D646003307EB0013851B007E
:1006080013063600634CFD022310F70063169502AB
:1006180063900C1283274101930C100013F6FC0F12
:10062800E39007F88326010193850A001305010268
:10063800EF50C03C6FF01FF8930B050093954500F1
:1006480093971B00B3E5D500B307FB0013871B0086
:100658006348BD002390B700E30C97FA930B07009B
:10066800E31CCAF6B7170000130E801F138CF7FFA0
:10067800232C5101B37A3E0363860A02330E5E418E
:1006880093070E2D13070102338EE70003474EE050
:1006980093072000230AE10E6396FA0003475EE001
:1006A800A30AE10E33055401130601029305100055
:1006B800EF40406213981B00138E8A0A33080B011F
:1006C800B3887441930604001305000003C716009D
:1006D80003C606009315150093178700B3E7C700F4
:1006E8001356470003C72600B3F7870193970701FE
:1006F800938636001317470093D707413303B80092
:10070800B38EDD00930505003367C7006346FD001F
:100718002310F3009305150063E41503B38BBB00A6
:100728009307F00FE3F877F5832A8101E3840CEE51
:10073800032B8100631E0B02138B0C006FF09FE2EA
:1007480093971500B307F80013851500635AED0059
:1007580013850500E37CDEF7930505006FF01FFCA9
:100768002390E700E37A15FFE372DEF76FF0DFFE10
:100778008320C13203248132832441320329013288
:100788008329C131032A8131832A4131032B013165
:10079800832BC130032C8130832C4130032D013051
:1007A800832DC12F1301013367800000130101BAA3
:1007B800232C81442328214537F4FFFF37190000F3
:1007C800B7F2FFFF232A914493070944930404BC1A
:1007D800232E114423263145232441452322514504
:1007E80023206145B387970033015100B384270064
:1007F80093090500938A05001385040093050002F8
:1008080023200100232201002324010023260100C4
:1008180023280100232A0100232C0100232E010094
:10082800232001022322010223240102232601029C
:1008380023280102232A0102232C0102232E01026C
:10084800EF50002893850400138504001306000266
:10085800EF40D055130509C49385040033052500DE
:1008680013060000EFF0DFC9130B090093070B44D0
:1008780013090440B387270133892700138A040228
:1008880093050A001305090013060000EF00504BFA
:1008980093050A001305092013061000EF00504ABB
:1008A800130404C093070B44B387870033842700DD
:1008B80093050A001305040013062000EF005048B2
:1008C80093050A001306300013050420EF00504773
:1008D80013050900EF00806213050400EF000062B1
:1008E80093050BC413060900B385250013050144BD
:1008F800EF00C06593070B04B305F1001306090068
:1009080013050164EF008064930501441306040095
:1009180013850500EF00C06B9305090013850A00D5
:10092800EF00C0569305014413850900EF000056F7
:10093800938504001385093013060002EF609027A1
:10094800B7120000330151008320C14503248145BB
:1009580083244145032901458329C144032A81444D
:10096800832A4144032B0144130101466780000098
:10097800130101812322917E2324817DB7F2FFFF99
:10098800372C0000B7F4FFFF9382029A2326717D6B
:1009980093070CE2938B04C02326117E2324817EC7
:1009A8002320217F232E317D232C417D232A517D35
:1009B8002328617D2322917DB3877701330151007C
:1009C800B38B2700130A0500138B050013850B0052
:1009D80093050600938906001309060023200100E9
:1009E80023220100232401002326010023280100DB
:1009F800232A0100232C0100232E0100EF00804C44
:100A0800130600029305093013050100EF60901AE0
:100A180037E4FFFF930A044093070CE2B3875701BA
:100A2800B38A270093050B0013850A00EF00900A8C
:100A3800B71C00009305041E93070CE2B387B700A8
:100A480013850C62B38527003305250013061000B3
:100A5800EFF01FAB1389048093070CE2B3872701DB
:100A68003389270093850900130509001306000040
:100A7800EF00102D938509001305092013061000B7
:100A8800EF00102C13850CE293850900330525002F
:100A980013062000EF00D02E93870CE2B3872700BF
:100AA800938509001385072013063000EF00502DA9
:100AB800130B046093070CE2B3876701338B27009D
:100AC800938509001306400013050B00EF00502B17
:100AD80013050900EF0080429384044093070CE259
:100AE800B3879700B384270093850C62B3852500EC
:100AF8001385040013060900EF00404593070CA274
:100B0800B305F1001306090013850420EF00004423
:100B18001304042093070CE2B3878700338427006B
:100B28001306090093850B0013050400EF0000422B
:100B380013850400EF00003F13050400EF00902820
:100B480013860CE2330626009385040013850400FF
:100B5800EF00004813060B0093050400130504007A
:100B6800EF00103A13860A009305040013050400E9
:100B7800EF0010399385040013050A00EF004013B5
:100B88009305040013050A28EF000049B712000076
:100B980093820266330151008320C17E0324817E43
:100BA8008324417E0329017E8329C17D032A817D17
:100BB800832A417D032B017D832BC17C032C817CFF
:100BC800832C417C1301017F6780000013010181A0
:100BD8002326117E2324817E2322917E2320217FB8
:100BE800232E317D232C417D232A517D130101BD04
:100BF800130905001305014093090600B71A000000
:100C0800138A050037F4FFFFEF00001C930404402B
:100C180093870AC0B3879700B384270093050A28EF
:100C280013850400EF00005B13850A809385090093
:100C380033052500EF00002913050140EF00002CC3
:100C48001304046093870AC0B3878700338427009E
:100C580093850A8013060140B38525001305040017
:100C6800EF00C02E13050400EF00D0151306040092
:100C78009385040013050400EF00502E930504002B
:100C880013050900EF004070130101438320C17E62
:100C98000324817E8324417E0329017E8329C17D2B
:100CA800032A817D832A417D1301017F678000002B
:100CB800930805003716000013050514138805006E
:100CC8009388083C130616D0930605EC9305080094
:100CD80083920500839F2500039F450013DEF240A1
:100CE80013D7FF40337ECE003377C700839E65005D
:100CF8009357FF40330E5E003307F701B3F7C70081
:100D0800131E0E0113170701B387E701135E0E01C7
:100D18001357070113D3FE4093970701131EAE0024
:100D28001317A7003373C30093D70701130E0E6878
:100D3800130707683303D301335ECE029397A700E6
:100D48001313030193870768135303011313A300B5
:100D58001303036893865600938585003357C702AB
:100D6800137EFE3F935E8E00A38DC6FFB3D7C702E6
:100D78001377F73F131E270033EECE011357670092
:100D8800238EC6FF3353C30293F7F73F139E4700E2
:100D98003367C701A38EE6FE93D747001377F33F67
:100DA80013136700B3E7670013572700238FF6FE76
:100DB800A38FE6FEE39EA6F0138506141308082009
:100DC800E394A8F0678000003718000093880514A2
:100DD80013030500138E053C130818D0938508ECFF
:100DE8001305030083C6150003C7250083CE35000D
:100DF80083C2050083C745001396860093DF26004B
:100E0800135F47009316670013974E00336656002A
:100E1800B3E6F6019397270093DE6E003367E70188
:100E2800B3E7D7011376F63F93F6F63F1377F73F0C
:100E3800330606031305850093855500B38606031C
:100E4800130606201356A600231CC5FE3307070306
:100E58009386062093D6A600231DD5FEB3870703E5
:100E6800130707201357A700231EE5FE93870720C3
:100E780093D7A700231FF5FEE39615F7938805146B
:100E880013030320E39CC8F567800000130101FFEA
:100E98002324810023229100232611001304050036
:100EA80093840500EF00C03713050418032481005C
:100EB8008320C1009385042083244100130101018C
:100EC8006F000036130101FF2324810023229100C3
:100ED800232611001304050093840500EF00C03A8F
:100EE80013050420032481008320C100938504187E
:100EF80083244100130101016F000039130101FF30
:100F0800232481002326110013040500EF00406B01
:100F180013050420032481008320C100130101016B
:100F28006F00006A130101FF2324810023261100AA
:100F380013040500EF000069130504200324810051
:100F48008320C100130101016F00C067130101DF95
:100F580023261120232481202322912023202121AC
:100F6800130405009384050013090600EF00C0650B
:100F7800130609209385042013050100EF00C064BF
:100F8800130601009305040013050400EF004077E1
:100F98008320C120032481208324412003290120A8
:100FA8001301012167800000130101FF2324810040
:100FB8002326110013040500EF0080701305042098
:100FC800032481008320C100130101016F00406FD9
:100FD800130101FF232481002322910023202101F2
:100FE8002326110013040500938405001309060045
:100FF800EF00007113050420032481008320C10041
:101008001306092093850420032901008324410045
:10101800130101016F00C06E130101FE37160000B5
:10102800232E8100232C9100232A2101232831011A
:101038002326410113080508130616D0039A250034
:1010480083930500839965000399A5008394E500BF
:1010580083924500039E8500839FC5009358FA40FC
:10106800B3F8C80013DFF34093D6F9401357F9409B
:1010780093D7F440B3884801337FCF001354FE4020
:10108800B3F6C60093DEF2403377C700B3F7C70064
:1010980013D3FF4093980801330F7F00B3863601BE
:1010A800B3FECE00330727013374C400B38797001B
:1010B8003373C30093D80801131F0F0193960601D9
:1010C800B38E5E0013170701330EC401939707010F
:1010D8003303F30193984800135F0F0193D6060179
:1010E8001357070193D70701939E0E01131E0E0194
:1010F8001313030193880868131F4F00B3C8C8026D
:101108009396460093DE0E0113174700135E0E01F7
:101118009397470013530301130F0F6893860668CC
:10112800939E4E0013070768131E4E0093870768A7
:1011380013134300938E0E68130E0E68130303688F
:101148001305450093850501334FCF0293F8F80046
:1011580093984800B3C6C602137FFF00B3E8E801BE
:10116800230E15FF3347C70293F6F6009396460001
:10117800B3C7C7021377F70013174700B3CECE02E1
:1011880093F7F70093974700334ECE0293F8FE008B
:10119800B3E61601A30ED5FE3343C302137EFE0049
:1011A8003367C701230FE5FE1373F300B3E7670046
:1011B800A30FF5FEE31405E90324C101832481018B
:1011C8000329410183290101032AC10013010102F6
:1011D800678000003717000093860508130717D0AB
:1011E80083C70500130545009385150093F7F7009D
:1011F800B387E7029387870093D74740231EF5FEFE
:1012080083C7F5FF93D74700B387E7029387870023
:1012180093D74740231FF5FEE394D5FC6780000071
:101228003718000093080518130818D0039705000D
:1012380083972500130535001356F74093D6F740DA
:1012480033760601B3F606013307C700B387D70024
:1012580013170701939707011357070193D707013E
:101268001396470093568700B3E6C60093D7470006
:10127800A30EE5FE230FD5FEA30FF5FE93854500CB
:10128800E396A8FA67800000B716000013860518D1
:101298009386F6FF83C7150003C7050093853500BD
:1012A80093978700B3E7E700B3F7D7002310F5005B
:1012B80003C7E5FF83C7F5FF13054500135747002C
:1012C80093974700B3E7E700231FF5FEE314B6FC46
:1012D800678000001307052083C705001305050173
:1012E8009385150093F71700B307F04093F7176835
:1012F8002318F5FE83C7F5FF9397E70193D7F741C6
:1013080093F717682319F5FE83C7F5FF9397D7015D
:1013180093D7F74193F71768231AF5FE83C7F5FFAC
:101328009397C70193D7F74193F71768231BF5FEE7
:1013380083C7F5FF9397B70193D7F74193F71768DA
:10134800231CF5FE83C7F5FF9397A70193D7F741B1
:1013580093F71768231DF5FE83C7F5FF9397970149
:1013680093D7F74193F71768231EF5FE83C7F5FF58
:1013780093D77740B307F04093F71768231FF5FE1C
:10138800E31CA7F467800000B71600001386052049
:10139800938616D0230005008397050013051500D2
:1013A8009385050113D7F7403377D700B387E70054
:1013B8009397070193D707019397170093870768B7
:1013C800B3C7D70293F71700A30FF5FE039725FFBE
:1013D8001358F7403378D80033070701131707016C
:1013E8001357070113171700130707683347D70266
:1013F8001377170013171700B3E7E700A30FF5FEDD
:10140800039745FF1358F7403378D800330707018F
:101418001317070113570701131717001307076856
:101428003347D7021377170013172700B3E7E700EE
:10143800A30FF5FE039765FF1358F7403378D800DC
:10144800330707011317070113570701131717006D
:10145800130707683347D7021377170013173700A6
:10146800B3E7E700A30FF5FE039785FF1358F7408E
:101478003378D800330707011317070113570701FB
:1014880013171700130707683347D7021377170096
:1014980013174700B3E7E700A30FF5FE0397A5FF6F
:1014A8001358F7403378D80033070701131707019B
:1014B8001357070113171700130707683347D70295
:1014C8001377170013175700B3E7E700A30FF5FECC
:1014D8000397C5FF1358F7403378D800330707013F
:1014E8001317070113570701131717001307076886
:1014F8003347D7021377170013176700B3E7E700DE
:10150800A30FF5FE0397E5FF1358F7403378D8008B
:10151800330707011317070113570701131717009C
:10152800130707683347D702137717001317770095
:10153800B3E7E700A30FF5FEE31EB6E467800000FB
:10154800130101F32324810C9306060013040500FC
:1015580013860500130501009305000C2326110CC2
:10156800EF40C04F9305010013050400EF00404F02
:101578008320C10C0324810C1301010D6780000036
:10158800130101F7232481089306060013040500BC
:10159800138605001305010093050008232611088A
:1015A800EF40C04B9305010013050400EF000056FF
:1015B8008320C10803248108130101096780000002
:1015C8006F00801F6F00802B130101FE232A9100FA
:1015D80023282101232631012324410123225101FB
:1015E800232E1100232C810017DA0000130A0AE9C0
:1015F80093094500138945009304460097DA0000D3
:10160800938ACAEF03140A001386C4FF9305C9FF1F
:101618001385C9FF93060400EF000038B306804025
:1016280093960601138604009305090013850900A3
:1016380093D60641130A2A00EF00003693898900E1
:101648001309890093848400E31E5AFB8320C10197
:101658000324810183244101032901018329C10055
:10166800032A8100832A41001301010267800000D8
:10167800130101FF2324810023229100232021014B
:101688002326110013040500130905209304905420
:10169800031504001304240033059502EF00C05A13
:1016A800231FA4FEE31624FF8320C1000324810026
:1016B8008324410003290100130101016780000010
:1016C800130101FF23248100232291002326110006
:1016D80013040500930405200315040013042400D3
:1016E800EF000059231FA4FEE31894FE8320C100D5
:1016F8000324810083244100130101016780000055
:10170800130101FF23266101232471011300000046
:10171800930700009308100013080020B386F50013
:101728003307F600039B0600831B07001300000025
:10173800130000001300000033AB1BA13307F500B2
:101748002310670193872700E39A07FD032BC10045
:10175800832B81001301010167800000130101FF41
:1017680023266101232471019307000093081000C8
:1017780013080020B386F5003307F600039B060024
:10178800831B070013000000130000001300000073
:1017980033AB1BA1130000003307F50023107701BA
:1017A80093872700E39807FD032BC100832B810053
:1017B8001301010167800000130101FE232C310190
:1017C80023269101232E2101232A61012328710157
:1017D80093091000930C000897D60000938606C260
:1017E8001306F00F93051000130900001397190052
:1017F8003387E600B3872C01031707009389190084
:10180800637AF9069302090093921200B302550015
:10181800039B02003303990113131300330365007C
:10182800831B0300130000001300000013000000D6
:1018380033ABEBA023906201130000002310730167
:1018480013091900E360F9FC33099901E37026FBD9
:1018580093DC1C00E3EA95F90329C101832981017E
:10186800032B4101832B0101832CC10013010102C9
:1018780067800000138907006FF05FF7130101FE0E
:10188800232C31012326910193050500232E2101E4
:10189800232A6101232871019309F007930C200082
:1018A80097D60000938686B51306F00F1305000837
:1018B8001309000093971900B387F60003970700F0
:1018C800B3872C019389F9FF3307E0406372F90C61
:1018D8009302090093921200B3825500039B020001
:1018E800330399011313130033836500831B03002B
:1018F80013000000130000001300000033ABEBB02E
:1019080023906201130000002310730113091900CA
:10191800E360F9FC33099901E37E26F9939C1C00E6
:10192800E37895F9B7160000130900009307000043
:10193800938676CE1306F00F93971700B387F500BA
:10194800039B0700938B06001300000013000000A0
:101958001300000033AB0B9013000000931719001D
:101968003387F500231067019307190013890700CF
:10197800E374F6FC0329C10183298101032B41018A
:10198800832B0101832CC100130101026780000031
:10199800138907006FF01FF2130101FD232691023E
:1019A80023242103232231032320410383940500A8
:1019B8000399250083190600031A2600232E5101D6
:1019C800232C6101232A71012328810123269101F7
:1019D800938A0400130B0900938B0900130C0A0067
:1019E800938C060033290A901300000013000000AE
:1019F8001300000013000000B32C0990130000002E
:101A0800130000001300000013000000B3A4999114
:101A18002310950013000000B32A0C901300000057
:101A280013000000130000001300000033AB5B91AB
:101A3800231165018324C1020329810283294102FC
:101A4800032A0102832AC101032B8101832B41014F
:101A5800032C0101832CC1001301010367800000DE
:101A680037932400138E050C1303932403C7150022
:101A780083C7250083C605001317870093970701BE
:101A88003367F7003367D70093571700935627003B
:101A9800B3F66600B3F7670033776700B387D700FC
:101AA800B387E70013DF370013D6670093DE97008C
:101AB80093D6C70093D8F70013D7270113F87700F8
:101AC800137F7F001376760093FE7E0093F67600F0
:101AD80093F878001377770093D757013308E841D4
:101AE8003306D641B3861641B307F74023100501E4
:101AF8002311C5002312D5002313F5009385350063
:101B080013058500E314BEF667800000130101FE8B
:101B1800375F5555232E8100232C9100232A21015C
:101B28002328310123264101930F0520130F5F5508
:101B380083C6150003C6050083C7250003C7350003
:101B480093968600B3E6C60093970701B3E7D700DC
:101B5800131787013367F70093571700B3F7E701A7
:101B68003377E701B387E70013DA270013D3470079
:101B780093D9670093D8870013D9A70013D8C70053
:101B880093D4E70013D6070113D4270193D647014E
:101B980093D3670113D7870193D2A70193DEC701B7
:101BA80013FE3700137A3A001373330093F93900A0
:101BB80093F83800137939001378380093F4340017
:101BC800137636001374340093F6360093F333001B
:101BD8001377370093F2320093FE3E0093D7E70164
:101BE800330E4E4133033341B388284133089840BC
:101BF80033068640B386764033075740B387FE40A6
:101C08002310C501231165002312150123130501B3
:101C18002314C5002315D5002316E5002317F50066
:101C28001305050193854500E314F5F10324C1016B
:101C3800832481010329410183290101032AC10069
:101C4800130101026780000037F7FFFF9307173081
:101C5800B307F5021307F72F9397070193D70741A7
:101C6800B387E7023385A700135505416780000055
:101C7800B75700009387F7EBB307F5023707000261
:101C8800B387E70037170000130717D093D7A7418A
:101C9800B387E7023305F5401315050113550541D0
:101CA80067800000630006109307F6FF13077000B3
:101CB8006378F700B367B50093F7370063880702C6
:101CC8003306C5001307000083C7050083460500D7
:101CD8001305150093851500B3C7D7003367F700C0
:101CE800E314C5FE3335E000678000001373C6FFB8
:101CF80093070500938605003303A300130800002B
:101D080003A7060083A80700938747009386460029
:101D18003347170133680701E39467FE13578800B8
:101D2800935708013367E8003367F70013588801B1
:101D380033670701937636001377F70F9377C6FF5B
:101D4800E38206FAB386F5003308F50083C8060077
:101D580003480800938617003348180133670701C2
:101D6800E3F2C6F83308D500B386D5000348080067
:101D780083C6060093872700B346D8003367D70089
:101D8800E3F2C7F6B385F500B307F50083C605008F
:101D980083C70700B3C7F6003367F7003335E000A1
:101DA800678000001305000067800000B306D0407C
:101DB80093F6F60F630006129307F6FF1307300039
:101DC8006376F70EB367B50093F737006390070E95
:101DD80093871500B307F54093B737006398070C4E
:101DE800139386001397060133E366003363E30019
:101DF80093978601137EC6FF3363F300130705002C
:101E080013880500330EAE008328070083270800D7
:101E18001307470013084800B3C7F800B3F7670073
:101E2800B3C71701232EF7FEE310C7FF1377360059
:101E38009377C6FF6300070AB308F5003387F500F8
:101E480003C3080003470700138817003347E3005C
:101E580033F7E6003343E30023806800637CC80659
:101E6800330305013388050183480300034708004D
:101E78009387270033C7E80033F7E600B3C8E800C4
:101E88002300130163F8C7043305F500B387F50091
:101E98000347050083C70700B347F700B3F7F60009
:101EA8003347F7002300E500678000003306C500CC
:101EB8000347050083C70500130515009385150022
:101EC800B347F700B3F7F6003347F700A30FE5FE73
:101ED800E310C5FE678000009307100063EAC5049D
:101EE800B387C702B3D6F502E3FCC6FE638E0702CA
:101EF800930890006F008000B3D6F50213F7F60F31
:101F08001308770313070703130515001377F70F53
:101F1800B3F5F502B3C7C70263D4D8001377F80F37
:101F2800A30FE5FEE39A07FC230005006780000085
:101F3800938605006FF0DFFB17D800001308888B25
:101F480093079000832808003386A54063F0A724F0
:101F5800930710009306900013972700B307F70024
:101F6800939717003357F502E3E8E6FE930EA000B7
:101F7800130E90003353F502938818009376F30FED
:101F8800138776033375F502938606031377F70FE5
:101F9800B3C7D70363446E0013F7F60FA38FE8FEA9
:101FA800E39A07FC238008001305000297C6000087
:101FB80093868674371700E08327C70293F70701D3
:101FC800E39C07FE938616002328A70203C5060094
:101FD800E31405FE17D50000130585848346050024
:101FE80093080500371700E0638006028327C702BD
:101FF80093F70701E39C07FE938818002328D7026C
:1020080083C60800E39406FE13079000832808009F
:102018009307100093069000637CB700139727007E
:10202800B307F7009397170033D7F502E3E8E6FE06
:10203800930EA000130E900033D3F5029388180076
:102048009376F30F13877603B3F5F50293860603A9
:102058001377F70FB3C7D70363446E0013F7F60F70
:10206800A38FE8FEE39A07FC23800800930500028B
:1020780097C6000093864669371700E08327C70292
:1020880093F70701E39C07FE938616002328B702FF
:1020980083C50600E39405FE8346050097C5000046
:1020A80093850578371700E0638006028327C70207
:1020B80093F70701E39C07FE938515002328D702B1
:1020C80083C60500E39406FE1307900083250800E5
:1020D8009307100093069000637CC70013972700AE
:1020E800B307F700939717003357F602E3E8E6FEC5
:1020F8001303A000930890003358F6029385150047
:102108009376F80F138776033376F60293860603E1
:102118001377F70FB3C7670263C4080113F7F60F05
:10212800A38FE5FEE39A07FC23800500130600024F
:1021380097C600009386465E371700E08327C702DC
:1021480093F70701E39C07FE938616002328C7022E
:1021580003C60600E31406FE8346050017C6000002
:102168001306066C371700E0638006028327C70250
:1021780093F70701E39C07FE130616002328D702EE
:1021880083460600E39406FE67800000930710006C
:102198006FF0DFDD1307C5028327070093F70701F8
:1021A800E39C07FE2328B5026780000083460500EC
:1021B80063820602371700E08327C70293F70701F7
:1021C800E39C07FE130515002328D7028346050064
:1021D800E39406FE67800000B71700E0130730009D
:1021E80023A0E7006780000083270500130101E8AA
:1021F800232A21172328F10A83274500232831178A
:1022080023245117232AF10A8327850023226117E3
:10221800232071172328F1008327C500232E811559
:10222800232C9115232CF10A83270501232AA115B4
:102238002328B115232EF10A83274501232E811661
:10224800232C91162320F10C83278501232641177F
:102258002322F10C8327C5012324F10C83270502CF
:102268002326F10C832745022328F10C83278502B6
:10227800832D0503832C0506232AF10C8327C50229
:10228800032C4506232CF10C83274503232AF10050
:1022980083278503232EF1008327C5032320F1021A
:1022A80083270504232EF10C832745042320F10EF0
:1022B80083278504232CF1008327C5042322F102F8
:1022C800832705052324F102832745052326F102E8
:1022D800832785052322F10E8327C5052324F10EC4
:1022E800832785062328F1028327C506232AF102BE
:1022F80083270507032B0509832945092326F10EA2
:1023080083274507930B0B00138D09002328F10E33
:1023180083278507130B0C00232AF10E8327C50793
:10232800232CF10E83270508232CF1028327450867
:10233800232EF10283278508232EF1048327C5085D
:102348002320F106832785092320F1048327C50963
:102358002322F1048327050A2324F1048327450A4D
:102368002326F1048327850A2326F1068327C50A35
:102378002328F1068327050B2328F1048327450B1F
:102388000329050C832A450C232AF1048327850B8E
:10239800232EB10F2326A1142322F1068327C50B70
:1023A800930D090013890C002324F10697C7000038
:1023B8009387C7142326F1008327010B0327410DB8
:1023C8008326410B0323C10B032EC101832E010C6D
:1023D800032F01028323410C0324C10D0326810D21
:1023E800032501010328810B83284101032CC10C1B
:1023F800832C81018322C102B3C5E7000327C10FE3
:102408008324810C8329010E832F8102B347C301E2
:1024180033C6C60033CEEE0133C38300832E010DCD
:10242800032F41020324810E8323410EB346E500A6
:1024380033465600334718018322C10333489C01B1
:10244800832C010F032CC10EB3C8340133C5EE0130
:102458008324010383294103832E410F032F810F16
:10246800B3C5F501B3C67600832F810333478700D0
:102478008323C105032401063345950133475700DB
:10248800832CC10483224105334E6E01334E8E00E6
:10249800B3C5D5013346E601832EC106032F0107D4
:1024A8003346960133488801B34C5E00032C8104FF
:1024B800032E410633439300B3C6F6018324010477
:1024C800832F01053347E701B3C6D60133437301B0
:1024D800B3C72701B3C58501131A1700334CC301CD
:1024E800B3C838010323810683294104B3C77700A1
:1024F80013D4F601B3C7F701336444013348980095
:10250800139A16009354F701B3C8A801B3E4440121
:1025180093D2F701139A1C00B3E242013345350107
:1025280013DAFC01B3C9680093931700B3637A0008
:10253800135FFC01139A19003348B801334555015C
:10254800931F1C00336F4F0113DAF901B36FFA01BF
:10255800131E1500135AF801935EF501336ECA0174
:10256800131A1800931816001353F601B3EE4E0110
:1025780033C6C20013DAF50183224101B3681A0198
:10258800B3C83801B3495600B3C25801832A410C75
:10259800B3CEFE00334E9E01139A1500938C0E00A5
:1025A800B3C5B300B3C37E01B3CE5E01832A810CE9
:1025B800334FEF00336343013343830133C80401CE
:1025C800130C0F00B3446F01334F5E01832A81015E
:1025D800B3C6DF00832B8102B34FB301930D030011
:1025E80033435301832A41023345A4003344AE01E7
:1025F800130D0E0033CE5801930A080033487801B2
:10260800832BC102232C1101130B0500B34875015C
:10261800832B81030327C10F9387050033C57501F9
:10262800232CA10403250101832BC103232AF106CE
:10263800B3C7A7000325810B33CAE50013070600BB
:10264800B345760133C92601938B0600232CE10696
:10265800832601053347A7000325C10133C6DB00E4
:10266800232E7107B3CBAB00832641052326710BBC
:1026780003250102232291092324A109B34BAC00AD
:1026880003250103232C710B2326B109B3CCAC001D
:1026980003254103832B810123285101334DAD00CC
:1026A800032501042324A10D2322910DB3CDAD00F0
:1026B80003254104939CB400232EB10F33C5AB000E
:1026C8002320A11003258104935D4A0193D454016A
:1026D800B3CAAA000325C10423225111832AC100C9
:1026E8003345AB002324A11003A50A0003AD4A001B
:1026F800232081092328A1081395C900232EA100AE
:10270800135559011319B900232A6101232EA10970
:102718002320B103232291032324A102232621038A
:102728001395D5002328910293D4B300232A91024C
:102738002326A1040325810593145401232C910217
:10274800B346DC0093543501232891049394D601B1
:10275800232A91049354360013D9F701232C9104AA
:10276800931417002320210B2322910A0329C10166
:1027780083240102131ACA0093D9490133699900C5
:10278800B3693A0183244102032A8102232A2109D9
:102798000329C10233EA440183240103232E4101A2
:1027A800032A4103B36499002320910283248103FF
:1027B80013DC2F01232E8103336A9A008324C1037B
:1027C80013DD4E00931CCF01135CC300931B4E0115
:1027D800135F4F00135ECE00939ECE011313430187
:1027E800939DE200135BD801939A3800B36EDF0122
:1027F80033636E009393530193D2220193D8D80187
:102808001354B400939FEF00131838003364740016
:10281800B3EFF201B3E3B401B3629D0133E80801F9
:10282800232AD103232E6102B36E7C0133635B013B
:10283800232C3109232441032322810223287102F6
:102848002326F103232C51022320D10523246104DC
:10285800232201050328C104832F01058324810550
:102868001316D601B36FF8010328410593D6360035
:10287800B366D600B36298008324410A0328010A8C
:1028880093D535011315D50033669800032F010140
:10289800032B4101832DC1080329C10C3365B50001
:1028A8002324C10A8325410D0326810D1357F701FF
:1028B800939717003364F700334ECB0033C72D01CD
:1028C800B347BF00032381010329010D03264107F4
:1028D8008325410E232CD104B3462301334CB60083
:1028E8000329810E832581072328A1040325C10715
:1028F800B3CB25010329C105032801088328410812
:1029080033432501032901062326F105232A51040F
:10291800B34C2801032941062322810A2326C11129
:1029280033CD2801032E8108032981060326810B54
:102938008322810CB34D2E01131A66000329C10AA4
:10294800935EA6010326410C832F010B93D47200DA
:1029580023209106131E6900935976009318960157
:10296800935AA9010326C10F1399920183220110DA
:10297800B34FFF01B3EA4A01130F0B00032A010604
:10298800032B410B13D8820113158600334F6F01B7
:1029980033E92901032BC10BB3691A01336AA80073
:1029A8000325C107032801089354860133456501AF
:1029B800032B010C13948200B3E8840033486801A8
:1029C80023241107032BC10D832841080326411036
:1029D80083258110B3EECE0123260113032E81082F
:1029E80033C86801032B010E9353E6009392250127
:1029F8001316260193D5E50033446E0133E6C5006E
:102A0800232E51052326210B23203107232241079A
:102A18002328C10A2324A112232801130325C1084E
:102A2800232A8112032BC10E8328810183250101EA
:102A3800B34A6501032B010F03258109032EC10148
:102A480033CA68018328410F83240102B3E253008B
:102A5800B3C91501832541018328810F83234102CE
:102A68001348F5FF33C91501832541078328C1069B
:102A78001345FEFF032E0103B3C8150123221109D4
:102A8800832581078328010713CBF3FF8323810262
:102A980033C61501832541092324610913C4F3FFB3
:102AA80093C8F5FF93C5F4FF8324C102832301046F
:102AB8002326810813CBF4FF9344FEFF032E8104E1
:102AC8002320610B13C4F3FF134BFEFF032EC10435
:102AD800232CC112232A910A232C810A232E610B4D
:102AE8001344FEFF8324C103832341042320810C64
:102AF800032E010593C4F4FF93C3F3FF134BFEFFAA
:102B0800032E41052322610D1344FEFF032E810588
:102B18002324810C134BFEFF032E41032326610D52
:102B28001344FEFF032E81032328810C134BFEFF61
:102B3800032E410A232A610D139BB6011344FEFF9D
:102B4800032E810A232C810C232861011344FEFFE4
:102B5800032EC1102322811293D6560013164E005D
:102B6800232AC10013D6C701232CC10013566C01B8
:102B78002326C1061396AB002328C10603260101AC
:102B8800135457001317B7013364C40033E7E60042
:102B9800032641012328810013040700032781012C
:102BA8008326010793DB6B013367E6000326C10622
:102BB80093974700135BCE01232A7107931BAC0040
:102BC800135C130133EB6701B366D600232C81072E
:102BD800139CFC00232E8107232AE100232C61018A
:102BE8002328D1060326410713DC1C01139E8D01FF
:102BF800931CF30013538D008327C1070327010299
:102C0800B36B7601B36C9C0103268107336C6E00AD
:102C180003230109B376E800B367F6000328C1026D
:102C28003346F30103238108131D8D0193DD8D00C5
:102C3800B36DBD01032DC109232A9107B37C03019C
:102C48000323C108032801032324D10E832641024C
:102C5800334DED01032EC1012320A10F337D030164
:102C68000323010A232E8107337CD50083268102A2
:102C7800B3F8C8013373F3012322110F232E610E19
:102C8800B3F8D5000323410B2328110F83284104EF
:102C98003373E3018325810B23267107232CF10667
:102CA8002320B109232EC10C2326810F232A910F3B
:102CB800232CA10F23206110B3F41401832881046D
:102CC8001343FFFF832B010533FF15018325C10B38
:102CD800032C4105832C810533F575018325010CEF
:102CE80013CEFFFF83284103B3FF85018325410CE1
:102CF8002322E111032FC10433F795018325810CA9
:102D0800B3F3E301032FC103B3F71501832881034C
:102D18008325C10C832D01062324A110B3F51501C9
:102D2800232AB1108325010D13C5FDFF832DC10A88
:102D3800B3F5E501232CB110032F01048325410DC0
:102D48002328F11083274106B3F5E501232EB1109E
:102D580093C5FDFF832D810D032DC1052326E110A9
:102D680033FFDD01832D411213C7F7FF2320E11242
:102D7800B3FDAD01032781060326010B2322B113FE
:102D8800032BC112832C8112832B4113931DEB015A
:102D9800135C2B00032B0113232681091348FDFF25
:102DA800135C9B0013DD2C00131B7B01939CEC012F
:102DB800232491092328610933EDAD0113DB9B001E
:102DC800832D8108232E61092320A10D13DB9A018D
:102DD800032DC108939A7A002320510B935A9A0124
:102DE800232A510B931A990013597901232E210B89
:102DF80033EDAD01032941089346F7FF939C7B010E
:102E08001347F6FF931B7A0003268113B3EC8C015A
:102E18002322A10D032C410B33ED6B01032B010A77
:102E280013DA790193999900232C310BB3EA4A01FB
:102E38009359E901131926001356E601336B8B01E8
:102E4800832D0109032CC10B232CC10C2324910DC4
:102E580003264108832CC10923225109832A810BA7
:102E6800B3ED9D0133E92901B3EA8A012326B10DA7
:102E78002328A10D232A610D232451092328210980
:102E88008329810D131626000329410EB3E9C900D1
:102E98000326C10D232631098329810933462601DA
:102EA800232EC1080329810E0326010E032AC1011E
:102EB800832BC10F334626012320C10A0329410968
:102EC8000326C10E032B4102832A810F33462601B4
:102ED800232AC1080326010F33CB6B012322610388
:102EE80033463601232CC1080326410F032B410327
:102EF800832B011033464601032A0102B3C464013F
:102F0800232A9102B3CA4A01032A81028324411069
:102F1800232EC10033CA4B0123244103032A810312
:102F28002320510333733301B3C44401032AC1037B
:102F3800232C910293C8FEFF33CA4301232E410379
:102F480083230104032B8110832B0105032C4105E6
:102F5800B3437B002320710483234104832C810520
:102F68000326010BB3C37F0023227104832F81043E
:102F78008323C110032A4106334FCF00B3CFF30197
:102F88002324F10583230111832FC104832901061A
:102F9800232AE10BB3CFF30183234111032F8106C9
:102FA80033754501B3CB730123287105832B811138
:102FB8003345D5018323C10A33CC8B01832BC1113F
:102FC8002326F105232A8105B3CC9B01832B4112CB
:102FD800832F410A232C9105B3CB5B00232C710B63
:102FE800337E2E01B3F838010329410183290112E8
:102FF800B3F5E501032F810A032B8101032AC107D9
:10300800832401082326A10A0325C105B3F6560027
:10301800934AFAFFB3C5A50013CAF4FF8324C1027B
:1030280033C57600232EB104832641068325010685
:1030380033F6C9003377F701334E9E00032CC106DF
:10304800B345B600B346D7002326C103032781063C
:10305800032E01030326C10693C7F2FF33787800D5
:10306800832281072320B10683254107B3F7E701AF
:103078003348E801832B0107832941073343C30100
:10308800B3C8F801934DF9FF934CFCFF2324010BBF
:1030980033C8E7008324010803274101B3FDCD00AD
:1030A800134DFBFF0326010713CBF2FF2328610210
:1030B800832201012322110B2328A10A23240107BB
:1030C8000325C107B3FCBC00232E810A8325810791
:1030D8002322D106832681010328810C032F81082E
:1030E800832FC10813CCFBFF93CBF9FF8328C10CB6
:1030F800032E410D832E41088327C109B3FBAB0082
:10310800337B9B0013C5FFFF9344F8FF832F01090E
:103118001348FFFF032F4103337CBC00B3FA8A0036
:10312800337A5A009349F4FF13C9F2FF13C4F8FF26
:103138009342FEFF93C8FEFF032E410C832E010A23
:1031480093C5FFFFB3CFE701032F81030323010DCD
:1031580083274109B3F9E9003379D900032701042A
:103168009346FEFF33CFEE01032E8109832EC10360
:103178009343F3FF334EEE000323010C032741046E
:10318800B3CED7018327C101337DCD001346F3FFAA
:1031980033C3E7008327810403270102232C210D71
:1031A8000329C1043347F70083274102232E710CFA
:1031B80083230105B3C7270103298102B34379009B
:1031C8002320710E0329410B83234105B3C3230137
:1031D8002322710E0329810B83238105B3C32301A5
:1031E8000329C10B2324710EB3C32D010329410107
:1031F800832D0101232E710AB3CC2C0103298101EF
:10320800334DBD018323C10DB34D2C01032CC106E1
:1032180003298107232CB10133CC8B01832B0107B0
:10322800832D01082328A101B34B7B01032B410700
:10323800032D010D232A910133CB6A01B34A2A01D8
:10324800032AC1070329810D232A610733CB4901CA
:10325800032AC10883298108B34DB901B3F848018D
:1032680003294108032A010923268107232C610722
:10327800232EB107032B010C832D410DB3F232012C
:103288002328110D23287107832B410C8329410A18
:1032980033784801032AC105B3CF3F018329810A46
:1032A800832CC10C334E4E01334F3F018329C10A91
:1032B800032A010BB3C29201B3CE3E018329010652
:1032C800B3F323013347470103294106032A010EBB
:1032D800334333012320510C83298106B342B801BB
:1032E8000328410833756501B3C727013348050131
:1032F80033493A0103258108032A410E8329C10273
:10330800032C810CB3F575018328810EB3493A016A
:1033180033C5A500032A01038325C1083376860136
:1033280033CA48013346B6008328010D2324C10857
:10333800032601093374B40133447401B3F69601CA
:10334800B3CB8301B3C8A801B3CDC600832C410118
:103358008326C10B0326010183258101032CC106A5
:103368002322110D2324510C232201092320710942
:10337800832B01070328C107B3F4A401B3C4640174
:10338800032B4107130D0500B3420A0103258107EA
:1033980003284108B3CFDF00334FCF00832601084D
:1033A8000326010CB3C76701B3C3A900B3CE9E01BE
:1033B800B3C90701334EBE0083278108B3CEDE00B0
:1033C800334ECE008325810C33495901334F8F008A
:1033D8003349A9018328410C232881082326A10DFC
:1033E80013D4FE01131D1E00B3CF9F00B3C3F30017
:1033F800B3C2B201334777013364A401232691088D
:10340800139D1E009354FE01334AB700B3E4A40190
:103418003343830113DDF301939512003343130102
:10342800135BF90193981900B365BD0013DDF20130
:10343800B342540003240106131C13001357FA0166
:10344800B3681B01B3C8D80193DBF901131819003D
:1034580013951300336787013347F701931C1A004C
:103468009357F30113961F0033E80B013365AD0042
:10347800B34B140113DDFF010324010B832F010457
:10348800B3E79701B3C7E7013348C80193161F0094
:10349800B3C5450133CCFF00334B0401832F4105ED
:1034A800032AC10303244107B366DD00135DFF014E
:1034B8003366CD003345650033463601B34CEA0028
:1034C800334AA40033C4CF00832F8105B3C6260135
:1034D800032F4102B3C37400B3C4DF00832F410A32
:1034E800032381083349AF00032E8101032F810292
:1034F800B3CE7F00832F810A334DC30003234109D4
:10350800B349BF00334FFE00032E410CB3CF5F0019
:103518003343E300232AD105232CF105B34E1E01C2
:10352800832F4101032E810C232A6106032381097D
:10353800334E0E01B3CABA003343F30023246108A3
:1035480003234104B3CDDD00B3CFEF0033431301B0
:10355800232A61080323810433430301232C6108D0
:10356800032341063343A3002322610A0323810670
:103578003343B3002324610A032381073343C30081
:103588002328610A0323C1073343D3002322610C94
:103598000323C108334373002324610C0323010967
:1035A80033435300232C610C0323C1023343C3006C
:1035B800232E610C032301033343D3002320610E20
:1035C80003234103334373002322610E0323810342
:1035D800334353002324610E0323C10A3343E3001A
:1035E8002326610E0323C1053343F3002328610E0C
:1035F8000323C10633431301232A610E0323010762
:1036080033430301232C610E032341083343A300F2
:10361800232461100323C10C3343B3002322611018
:103628000323C101B34813010323010233480301F3
:103638000323C1043345A30003230105B345B300A5
:103648000323410B3346C3000323810BB346D30046
:103658000323C10B334373002322611403230101A5
:103668003343530023206114032301083347E30045
:103678000323010C2324E1143347F3008327C100FB
:1036880003A3870083A7C7002328610C232AF10C12
:103698009317CC002328F10093D74C01232AF1007B
:1036A8009317BB00232CF10093D75B01232EF10065
:1036B8009357BA002320F10293975A012322F1026B
:1036C80093572D012324F1029397ED001393C90119
:1036D8002326F102935749002328F102232A610285
:1036E800139344019357C400232E61020323410519
:1036F800232CF1028327810513144401232081041C
:103708001354D30123228104139437002324810402
:1037180013D4D701832741072326810413143300C8
:103728002328810413D3F7011314DF00232A81040B
:103738002324610613D43F010323810893971700BC
:10374800232C81042328F1061314DE018327410961
:10375800135E3E00232E81042322C10713D43E00AA
:10376800032E8109232081061314130023268106C2
:1037780013D4A701232A810613146E00232C810673
:103788001354AE01232E81060324410A9397670040
:103798002320F108935774002322F1088327810A14
:1037A800939CCC00135C4C01139E97012324C10900
:1037B80013DE77002326C109131E94012328C109AB
:1037C8000324010B8327410C33EC8C01135E840125
:1037D800232AC109139E8700232CC10913DE870100
:1037E8002322C10B131E84000324810C8327810D1F
:1037F8002324C10B135EE4002326C10B139E27016B
:103808002328C10B13DEE700232AC10B131E240152
:103818000324C10D8327010E232CC10B135E540012
:10382800232EC10B139EB7012320C10D13DE5700B1
:103838008327810E2322C10D131EB4010324410ED8
:103848002324C10D139E47002326C10D135EC40116
:1038580013144400232E810C0324C10E93D7C701EF
:103868002320F10E935764012322F10E8327010FC1
:10387800232CC10D135B5B01139EA70093D767012F
:103888002326F10E9317A4000324410F2328F10ED9
:103898002324C10F93571401232AF10E8327810F84
:1038A8001314F40023208110139EF70093D71701F7
:1038B800232EF10E83274110232CC10F939BBB00AD
:1038C80013948701232281100324811093D7870042
:1038D8002328F110135E840093D728001314840161
:1038E8009398E80123268110232E11111314E8015F
:1038F80093589500135828001315750123200113B8
:103908002326A112139875010325011493D5950058
:103918002328B11293957600232AB1129355960164
:1039280013167600232EC112131695002320C114F6
:103938000326411423241113232CB1129358760122
:103948009315960013567501131527001357E701B1
:103958002322E1140327C109232A81100324811497
:10396800B34377000327010A232CF1102322011304
:10397800B34257001358E4010327010193172400A9
:10398800032441012324C111B3EB6B013367870082
:103998002328E10003248101832CC101032B410268
:1039A80093DABA00B36C940103240102131A5A0182
:1039B80033EA4A01336B6401832AC102032481027A
:1039C80093DD2D01131DED00B36A5401232A510123
:1039D80003240103B3EAAD01032D410393D9490040
:1039E8001319C901336DA40133E9290103248103A3
:1039F8008329C10393D4C400232EA101B3693401E0
:103A080003240104232031038329810433E484003F
:103A180083244104032D8105939FDF00B3E434011F
:103A280023249102832901058324C104135F3F01E4
:103A380033EFEF01B3E4340183294105832FC10536
:103A4800032E4106B3E9A901032D0106939EDE0169
:103A580033EECE01B3EFAF01832E81062328F103A5
:103A6800832FC1061353F301232C2101B3EEFE016A
:103A7800832F010723229102232631033363F301A5
:103A8800232AC103232ED103232C6102032D81078E
:103A9800832F410703290108032E8108B3EFAF01E3
:103AA800032DC107832DC108832E8109336D2D0194
:103AB800032941080327010B2322F1053369C901B2
:103AC800032E0109832FC10B8324410CB3EDCD01D3
:103AD800032E41098329C10C2320A1053363DE018C
:103AE800832E810A032E410A232621052324B105AA
:103AF800336EDE01832EC10A2328C105032E810BF4
:103B0800B3EEEE000327410B232A6104232ED105CF
:103B18003367C701032E010C232CE10493D69601C9
:103B2800B3EFCF01032E810C2322F107B3E5C500C3
:103B3800B3E4C401032E810D232091063366A80047
:103B4800B3E9C901232431070329010E032DC10D4F
:103B5800032E810E832E010F336D2D010329410E93
:103B6800832D0110032781103369C901032EC10E6B
:103B7800832F0111832481113363DE01832E810F8A
:103B8800032E410F832901122326A107336EDE017C
:103B9800832EC10F032D8112232A2107B3EEBE0104
:103BA800832D41100329011323286106B3EDED008D
:103BB8000327C110232EC107232CD1073367F70130
:103BC800832F41112320B1092322E108B3EF9F007D
:103BD8008324C1112324F109B3E434018329411258
:103BE800232691089344F4FFB3E9A901032DC112D8
:103BF8002328310993C9F3FF336D2D01232AA10925
:103C0800032E81130329411303274114032381023F
:103C18003369C901032EC1133365F700832EC1022E
:103C2800B366DE00232ED10883260114032E410239
:103C3800032841032324A10A03250103B3E816013D
:103C48009347FBFF232C2109232A510A13C9F2FFAA
:103C58009342F3FF032701012320110B2322B10A0A
:103C6800832801022326C10A232C810B0326410144
:103C7800232E910B2320710D2322410D2324610D46
:103C88002322F10E2326510D2328710A232E810C9D
:103C98009343FEFF2324510E93CFFEFF2320E10F11
:103CA800934EF5FF134EF8FF032881010325C10148
:103CB800032BC10583264104832741059342FBFF5B
:103CC800032B81032326510E934DF7FF9342FBFFED
:103CD800032BC1032328510E0327C1049342FBFF82
:103CE800032B8106232A510E134DFCFF9342FBFF41
:103CF800032BC106232C510E13CCFBFF9342FBFF71
:103D0800032B0107232E510E934BFAFF9342FBFF1F
:103D1800032B410723225110134AF6FF9342FBFF5E
:103D2800032B810723245110032601049342FBFF30
:103D3800032BC10723265110832581049342FBFFDF
:103D4800032B01082328511013C4F8FF9342FBFFEB
:103D5800032B4108232A51101343F8FF9342FBFF1A
:103D6800032B0106232C51109348F5FF9342FBFFC8
:103D78001348F6FF13C5F6FF1346F7FF8326010520
:103D880013C7F7FF232E511083278105032B410604
:103D980093CCFCFF93CAFAFF9342FBFF032B010964
:103DA80023205112134FFFFF9342FBFF032B4109BE
:103DB8002322511293C5F5FF9342FBFF032B810980
:103DC8002324511293C6F6FF9342FBFF032BC1092C
:103DD8002326511293C7F7FF9342FBFF032B010AD7
:103DE800232851129342FBFF032B410A232A511225
:103DF8009342FBFF032B810A232C51129342FBFFB2
:103E0800032BC10A232E51129342FBFF032B810877
:103E1800232051149342FBFF032BC1082322511482
:103E28009342FBFF23245114032B010B8322010D22
:103E3800B3C262012328510C032B410B8322410D8D
:103E4800B3C26201032BC10B232A510C33FB6D0152
:103E5800232C610D032B010C832D410C337D6D0147
:103E6800032B810CB3FCBC01832D410E337C6C0108
:103E7800032BC10C8322810EB3FB6B01032B410181
:103E880033FB6D01832D010BB3FABA01832D410B6E
:103E9800337ABA01832D0101B3F9B901832D810B5E
:103EA8003379B901832D4102B3F4B401832D810222
:103EB8003374B401832DC102B3F3B301832D010E12
:103EC8002322710E8323C10EB3F2B201832D0103A5
:103ED800B3FFBF01832D4103337FBF01832D8101D0
:103EE800B3FEBE01832DC101337EBE01832DC10DFA
:103EF8003373B301832D0102B3F8B801832D810414
:103F08003378B801832DC1043375B501832D0105BC
:103F1800B3F5B501832D41053376B601832D8105AF
:103F2800B3F6B601832DC1053377B701832D81031D
:103F3800B3F7B701832DC103B3F3B3012326710E81
:103F4800832D01048323010FB3F3B3012328710EDA
:103F58008323410F832D4104B3F3B301232A710E48
:103F6800832D01078323810FB3F3B301232C710E33
:103F7800832D41078323C10FB3F3B30123207110AD
:103F8800832D810783234110B3F3B30123227110DA
:103F9800832DC10783238110B3F3B3012324711048
:103FA800832D01088323C110B3F3B30123267110B5
:103FB800832D410883230111B3F3B3012328711022
:103FC800832D010683234111B3F3B301232A711012
:103FD800832D410683238111B3F3B301232C711080
:103FE800832D81068323C111B3F3B301232E7110EE
:103FF800832DC10683230112B3F3B3012320711269
:1040080083234112832D8109B3F3B3012322711253
:10401800832DC10983238112B3F3B30123247112C1
:10402800832D010A8323C112B3F3B301232671122E
:10403800832D410A83230113B3F3B301232871129B
:10404800832D810A83234113B3F3B301232A711209
:10405800832DC10A83238113B3F3B301232C711277
:10406800832D81088323C113B3F3B301232E711267
:10407800832DC10883230114B3F3B30123207114E2
:10408800832D010983234114B3F3B301232271144F
:10409800832D410983238114B3F3B301832DC10018
:1040A80023247114938D0D012326B1018323010D5F
:1040B800832D810DB3C3B3012328710A8323410DD6
:1040C800832D010133CDA301232AA10B33CDBC01DC
:1040D800832D810B832CC10B8323410E334CBC01F0
:1040E800232C810B33CC9B01832B010C832D410C9A
:1040F8002328A101B34B7B01032B810C2320710DD5
:10410800B3CBBA01832AC10C334A6A01032B41019C
:10411800B3C959012326310DB34969010329810126
:10412800832DC1012322710DB3C42401232A910CCC
:10413800B344B4010324C10D832D0102232E810B46
:10414800B3C3830033C4B201832241022324410D47
:104158002328310DB3CF5F00232EF101232C910CBE
:10416800232E710E232A8100832D8102B34FBF01B4
:10417800832DC1022320F103B3CEBE01832D010E8E
:10418800232ED10D334EBE01832D01032320C10FF1
:104198003343B301832D4103232C610033C3B8019A
:1041A80083288103832DC103232261023348180128
:1041B800232401033348B50103250104832D410459
:1041C8002326010333C5A500832581043346B601A0
:1041D800832DC10433C9B600832601052324C10EEB
:1041E800334BB70133C6D700832D41058326C10E53
:1041F800832781052328C10233C6B6018326010F10
:10420800832DC105232AC10233C6F6008326410F38
:104218002326C10E2322A10E33C6B6012328C10EC0
:104228008326810F83270106832D410633C6F600B6
:1042380083260110232AC10E8327010733C6B6013E
:1042480083264110832D8106232CC10E33C6B60167
:1042580083268110832DC106232CC10233C6B601E3
:104268008326C110832D4107232EC10233C6F600D1
:104278008326011183278107232EC10433C6B60183
:1042880083264111832DC1072320C106B3CBF60035
:104298008326811133CDB6018326C111832D0108F0
:1042A80033C6B60183260112832D41082320C10499
:1042B80033C6B60183264112832D81082322C10407
:1042C80033C6B60183268112832DC1082324C10475
:1042D80033C6B6012326C1048326C112832D0109E2
:1042E8000327810A8327C10A33C6B601832601132F
:1042F800832D41092326C10633C6B60183264113FF
:10430800832D81092328C10633C6B601832681136C
:10431800832DC1092328C10433C6B6018326C113DE
:10432800832D010A232AC10433C6B601832601144A
:10433800832D410A2322C10633C6B60183264114C0
:104348002324C106B3CDE60003278114B34AF7003E
:104358008327C10017A70000130747266304F70047
:104368006FE08F850325C1148327010B930C090087
:10437800232E45012320F5008327410B2326950290
:10438800232A85022322F5008327010123287502A9
:10439800232EF5032324F5008327810B2320D5053D
:1043A8002322C5052326F5008327C10B2328F50002
:1043B8008327010C232AF5008327410C232CF500C1
:1043C8008327C10C2320F5028327010D2322F50240
:1043D8008327410D2324F5028327C101232CF502ED
:1043E800832781012324F50423266504832781027A
:1043F80023209507232265072328F5048327410EE8
:1044080023287509232AA509232CF5048327810E5F
:10441800232A0505232EF504832701032324F50603
:10442800832741032326F5068327C10E2328F50693
:104438008327010F232AF5068327410F232CF5062E
:104448008327810F232EF506832781032320F50870
:104458008327C1032322F5088327C1052324F508F0
:10446800832701062326F50883270104232CF50852
:10447800832741040324C1172320B50D232EF508F3
:10448800832781042322550D232EC50A2320F50AEC
:104498008327C10483248117032941172322F50A9E
:1044A8008327C10683290117032AC1162324F50A85
:1044B80083270107832A8116032B41162326F50A31
:1044C80083270105832B0116032CC1152328F50A20
:1044D80083274105832C8115032D4115232AF50ACD
:1044E80083274106832D0115232CF50A1301011892
:1044F80067800000130101FE232C8100232A91000C
:1045080023263101338FE500232E110023282101B2
:10451800930405001384060093090F00636ACF0A09
:104528001309060063FAC508B307B9401308040065
:10453800B306F400B38585401305F0016F008002CF
:1045480003AE070003A747003393680093080000F1
:10455800B3481E013347670023A0170123A2E700D1
:10456800630AD804B307B8008348080013F7770034
:104578001317370093F787FF130307FE330EE54041
:10458800B387F4001308180093DE1800E35A03FAFF
:1045980033D3CE01B398E80003AE070003A7470062
:1045A800B3481E013347670023A0170123A2E70081
:1045B800E31AD8FA1304080013850400B3092F413D
:1045C800EFD09FC2138F090093050000E3FE29F581
:1045D80063F8350BB387B94013060400B306F4003B
:1045E800B3858540130EF0016F00800283A8070091
:1045F80003A74700331805011305000033C5A800B9
:104608003347070123A0A70023A2E700630AD604C3
:10461800B307B6000345060013F7770013173700F2
:1046280093F787FF130807FEB308EE40B387F4003B
:104638001306160013531500E35A08FA33581301EA
:104648003315E50083A8070003A7470033C5A80072
:104658003347070123A0A70023A2E700E31AD6FAED
:104668008320C1010324810183244101032901011D
:10467800138509008329C100130101026780000026
:104688008320C1010324810193890500832441010A
:1046980003290101138509008329C10013010102BF
:1046A80067800000130101FE2328210123206101F6
:1046B80013090600138B05001306800C93050000F0
:1046C800232A910023263101232E1100232C810057
:1046D80023244101232251019309050093840600F4
:1046E800EF2090319307700863F6270B930A8B0825
:1046F800138A0A001304700893070B0093860900B5
:1047080003C7170003CE270003C8570003CF47008D
:1047180003C5670083CE070083C5370003C677004B
:1047280013178700131E0E011318880003A3060031
:1047380083A846003367C7013368E80113150501EC
:104748003367D701131686019395850133650501F3
:10475800B3E5E5003367A60033C7E8003346B30086
:1047680023A0C60023A2E6009387870093868600CD
:10477800E39847F913850900130989F7138B0A0091
:10478800EFD09FA6130A8A0863762401938A8A08C1
:104798006FF09FF6630C090E930600009308F00172
:1047A8006F00C00203280700832547003316C500A1
:1047B800130500003345A80033C6C50093861600CC
:1047C8002320A7002322C700630AD90493F57600A3
:1047D8009395350013F786FF3305DB00138605FE36
:1047E80003450500B387B8403387E900E35C06FA60
:1047F80003280700135615003315B5008325470015
:104808003356F6003345A80033C6C5009386160014
:104818002320A7002322C700E31AD9FA13777900C7
:10482800937789FF13193700130709FEB387F90037
:10483800634007063397E4009304000003A60700CB
:1048480083A647008320C1013346960033C7E6009C
:1048580023A2E70023A0C70083A7490803248101F6
:1048680037070080B3C7E70023A2F9088324410172
:10487800032901018329C100032A8100832A4100F9
:10488800032B0100130101026780000093870900D0
:104898009306F00113D71400B38626413357D70087
:1048A800B39424016FF09FF9130101FE232A9100AC
:1048B8002322510193040600938A05001306800CF5
:1048C8009305000023282101232E1100232C8100A9
:1048D800232631012324410113090500EF20D011BB
:1048E8009307700A63F6970A138A8A0A93090A00DB
:1048F8001304700A93870A009306090003C7170078
:1049080003CE270003C8570003CF470003C567003D
:1049180083CE070083C5370003C6770013178700C7
:10492800131E0E011318880003A3060083A846006F
:104938003367C7013368E801131505013367D701E9
:10494800131686019395850133650501B3E5E500E6
:104958003367A60033C7E8003346B30023A0C60078
:1049680023A2E6009387870093868600E39837F9A9
:1049780013050900938484F5930A0A00EFD0DF86B3
:104988009389890A63769400130A8A0A6FF09FF65E
:1049980063880410930600009308F0016F00C002BA
:1049A80003280700832547003316C50013050000B8
:1049B8003345A80033C6C500938616002320A700F8
:1049C8002322C700638AD40493F5760093953500B3
:1049D80013F786FF3385DA00138605FE03450500C5
:1049E800B387B8403307E900E35C06FA03280700F9
:1049F800135615003315B500832547003356F600C6
:104A08003345A80033C6C500938616002320A700A7
:104A18002322C700E39AD4FA13F67400131636005B
:104A280093F784FF930606FEB307F90063CE0604E6
:104A38001307F0013317D7009306000083A507007A
:104A480003A647008320C101B3C6D5003347E6005B
:104A580023A2E70023A0D7008327490A0324810162
:104A680037070080B3C7E7002322F90A83244101EE
:104A7800032901018329C100032A8100832A4100F7
:104A880013010102678000009306F001B385C64058
:104A98001307F0003357B700B396C6006FF01FFA3C
:104AA800930709009306F001130700006FF01FF940
:104AB800130101FF1306800C9305000023248100D5
:104AC8002326110013040500EF2000738320C10082
:104AD8002324040C032481001301010167800000D2
:104AE800938605008325850C130101FF1307060033
:104AF8001306800A232481002326110013040500CD
:104B0800EFF05F9F8320C1002324A40C03248100BD
:104B180013010101678000008327850C13F77700D4
:104B28001317370093F787FF930607FEB307F500BF
:104B380063C206041306F0013316D600930500007D
:104B480083A6070003A74700B3C6B6003347C700CC
:104B580023A2E70023A0D7008327450A1307800A6A
:104B68002324E50C37070080B3C7E7002322F50AA2
:104B7800678000009305F001B386E5401306F00056
:104B88003356D600B395E5006FF09FFB130101FE85
:104B9800232A9100232E1100232C81002328210190
:104BA80023263101232441018327860C9304060020
:104BB800638E050A1307800A138A0500130405008B
:104BC8006388E70C1307700A636CF7083306FA006A
:104BD80093080600E3FCC7FE9309F0011309700A65
:104BE8006F00C00103274700938717003357B700AA
:104BF800A30FE4FE6366F9046386170793F677004C
:104C08009396360013F787FF938506FE3388D940BD
:104C18003387E40013041400E3D605FC832547001A
:104C2800032707009387170093951500B39505018F
:104C38003357D70033E7E500A30FE4FEE37EF9FA24
:104C4800330AF6406304F60213850400EFD0CFD987
:104C580093080A009307000013060A006FF01FFA72
:104C68006F000000330AF640E312F6F68320C10114
:104C78000324810123A4F40C0329010183244101A5
:104C88008329C100032A8100130101026780000003
:104C980013050600EFD04FD593080A0093070000CC
:104CA80013060A006FF05FF3130101FF232481004C
:104CB8002326110013040500EFF01FBF9307800A95
:104CC8008320C1002324F40C032481001301010173
:104CD800678000006384050C130101FE2324410151
:104CE800130A850A232C8100232A910023282101F5
:104CF80023263101232E1100938905001304050092
:104D08001309060093040A0013050900EFD0CFCD5C
:104D180013060900930704008326060003274600AC
:104D28009387870093DE860013DE060113D386017E
:104D3800935887001358070193558701A38CD7FF11
:104D4800238DC7FFA38D67FEA38E17FF238F07FF51
:104D5800A38FB7FE238CD7FE238EE7FE13068600AB
:104D6800E39CF4FA9389F9FF13040A009384840AF4
:104D780063860900130A8A0A6FF01FF98320C101AC
:104D88000324810183244101032901018329C100EE
:104D9800032A810013010102678000006780000078
:104DA800130101FF1306800C9305000023248100E2
:104DB8002326110013040500EF2000448320C100BE
:104DC8002324040C032481001301010167800000DF
:104DD800938605008325850C130101FF1307060040
:104DE80013068008232481002326110013040500DC
:104DF800EFF04FF08320C1002324A40C032481008A
:104E080013010101678000008327850C13F77700E1
:104E18001317370093F787FF930607FEB307F500CC
:104E280063C206041306F0013316D600930500008A
:104E380083A6070003A74700B3C6B6003347C700D9
:104E480023A2E70023A0D70083274508130780087B
:104E58002324E50C37070080B3C7E7002322F508B1
:104E6800678000009305F001B386E5401306F00063
:104E78003356D600B395E5006FF09FFB130101FE92
:104E8800232A9100232E1100232C8100232821019D
:104E980023263101232441018327860C930406002D
:104EA800638E050A13078008138A0500130405009A
:104EB8006388E70C13077008636CF7083306FA0079
:104EC80093080600E3FCC7FE9309F0011309700874
:104ED8006F00C00103274700938717003357B700B7
:104EE800A30FE4FE6366F9046386170793F6770059
:104EF8009396360013F787FF938506FE3388D940CB
:104F08003387E40013041400E3D605FC8325470027
:104F1800032707009387170093951500B39505019C
:104F28003357D70033E7E500A30FE4FEE37EF9FA31
:104F3800330AF6406304F60213850400EFD0CFAAC3
:104F480093080A009307000013060A006FF01FFA7F
:104F58006F000000330AF640E312F6F68320C10121
:104F68000324810123A4F40C0329010183244101B2
:104F78008329C100032A8100130101026780000010
:104F880013050600EFD04FA693080A009307000008
:104F980013060A006FF05FF3130101FF9306F00197
:104FA800232481002326110013040500EFF08FEF5E
:104FB800930780088320C1002324F40C0324810074
:104FC80013010101678000006384050C130101FED1
:104FD80023244101130A8508232C8100232A9100E8
:104FE8002328210123263101232E1100938905004E
:104FF800130405001309060093040A0013050900A9
:10500800EFD08F9E1306090093070400832606003D
:10501800032746009387870093DE860013DE060188
:1050280013D38601935887001358070193558701B6
:10503800A38CD7FF238DC7FFA38D67FEA38E17FF11
:10504800238F07FFA38FB7FE238CD7FE238EE7FE9F
:1050580013068600E39CF4FA9389F9FF13040A0007
:105068009384840863860900130A8A086FF01FF97D
:105078008320C10103248101832441010329010103
:105088008329C100032A81001301010267800000FF
:1050980067800000130101F1930706002324810EA5
:1050A8002322910E1304050093840500138606003D
:1050B80093850700130501002320210F232E310DAE
:1050C800232C410D232A510D2326110EEFF0CFFD7D
:1050D8009307800A33D9F4022324F10C9307700A4A
:1050E800930A04009309810A130A090063F69706D4
:1050F80013050100EFD04F8F1307010093870A00B3
:10510800032607008326470013078700135E8600DF
:10511800135306019358860113D8860013D5060148
:1051280093D586012380C700A380C7012381670028
:10513800A38117012382D700A38207012383A70035
:10514800A383B70093878700E39CE9FA130AFAFF61
:10515800938A8A0AE31E0AF89307800AB3F9F402CD
:10516800B307F9023304F4006384090C1305010042
:10517800EFD08F879304F00113850900130800000E
:105188001309800A130708006F00C00183A747F3BB
:1051980013071700B3D7C700A30FF4FE630827054A
:1051A8006306A7069376770093963600937787FF72
:1051B8009387070D138606FEB385D440B38727006F
:1051C80013041400E35406FC03A647F383A707F36C
:1051D80013071700131616003316B600B3D7D700F7
:1051E800B367F600A30FF4FEE31C27FBB38909019C
:1051F800938989F5638E090213050100EFC0DFFE6C
:1052080013850900130800006FF0DFF733880901E0
:10521800B309E840630EE8003305370113080700B7
:1052280093070500E360F7F6E36EF7F46FF09FFF6E
:105238008320C10E0324810E8324410E0329010E0D
:105248008329C10D032A810D832A410D1301010F02
:1052580067800000130101F1930706002324810EE3
:105268002322910E1386060013040500938405007B
:105278009306F00193850700130501002320210FF1
:10528800232E310D232C410D232A510D2326110ED7
:10529800EFF04FC19307800833D9F4022324F10CAF
:1052A80093077008930A040093098108130A0900F8
:1052B80063F6970613050100EFC01FF313070100FB
:1052C80093870A00032607008326470013078700F1
:1052D800135E8600135306019358860113D886007F
:1052E80013D5060193D586012380C700A380C70183
:1052F80023816700A38117012382D700A3820701B6
:105308002383A700A383B70093878700E39CE9FA68
:10531800130AFAFF938A8A08E31E0AF89309800899
:10532800B3F9340393174900B387270193973700DC
:105338003304F4006384090C13050100EFC0DFEAAD
:105348001309F0011385090013080000930480086D
:10535800130708006F00C00183A747F3130717005E
:10536800B3D7C700A30FF4FE630897046306A70624
:105378009376770093963600937787FF9387070D88
:10538800138606FEB305D940B3872700130414001B
:10539800E35406FC03A647F383A707F31307170094
:1053A800131616003316B600B3D7D700B367F60046
:1053B800A30FF4FEE31C97FA33880901930988F7D1
:1053C800638E090213050100EFC01FE2138509006F
:1053D800130800006FF0DFF733880901B309E840CC
:1053E800630EE8003305370113080700930705002B
:1053F800E360F7F6E36EF7F46FF09FFF8320C10ECA
:105408000324810E8324410E0329010E8329C10D33
:10541800032A810D832A410D1301010F67800000C3
:10542800130101EF23248110930660001304050083
:105438001305810023261110232291102320211106
:10544800232E310F232C410F232A510F2328610FBC
:105458002326710F2324810F2322910F2320A10FCC
:10546800232EB10DEFF00FA413058100EFC0DFD795
:10547800832881000328C1000325010183254101F8
:10548800032681018326C1018327410203270102E4
:1054980093DD880013DD080193DC8801135C880024
:1054A800935B0801135B8801935A8500135A050121
:1054B8009359850113D9850093D4050193D38501A8
:1054C80093528600935F0601135F860193DE860080
:1054D80013DE060113D3860123001401A300B401CF
:1054E8002301A401A301940123020401A30284015E
:1054F80023037401A30364012304A400A304540137
:1055080023054401A30534012306B400A30624019E
:10551800230794002308C400230AD400A3077400B7
:10552800A30854002309F401A309E401A30AD40140
:10553800230BC401A30B6400935887001358070179
:105548001355870193D5870013D6070193D6870192
:10555800230CE400A30C1401230D0401A30DA400E3
:10556800230EF400A30EB400230FC400A30FD4002D
:105578008320C110032481108324411003290110C2
:105588008329C10F032A810F832A410F032B010F9F
:10559800832BC10E032C810E832C410E032D010E8B
:1055A800832DC10D1301011167800000130101EF64
:1055B8002322911023202111232A510F930405003F
:1055C800938A050013090600930500001306800C52
:1055D800130581002326111023248110232E310F57
:1055E800232C410F2328610F2326710F2324810FB9
:1055F8002322910F2320A10F232EB10DEF10D03FAE
:105608009307700463F6270B138A8A0493090A0028
:105618001304700493870A009306810003C71700D8
:1056280003CE270003C8570003CF470003C5670010
:1056380083CE070083C5370003C67700131787009A
:10564800131E0E011318880003A3060083A8460042
:105658003367C7013368E801131505013367D701BC
:10566800131686019395850133650501B3E5E500B9
:105678003367A60033C7E8003346B30023A0C6004B
:1056880023A2E6009387870093868600E398F9F8BB
:1056980013058100130989FB930A0A00EFC0DFB4E0
:1056A8009389890463762401130A8A046FF09FF6AC
:1056B800630E0932130600009308F0016F00C00260
:1056C800032807000325470093060000B395B70099
:1056D8003348D800B346B500130616002320070147
:1056E8002322D700630CC90493767600939636007C
:1056F80093078100137786FF3385CA00938506FEDA
:105708003387E7003388D84083470500E3DA05FA92
:1057180093D5170003254700B3D5050103280700D3
:10572800B396D700130616003348D800B346B50021
:10573800232007012322D700E318C9FA137679003A
:1057480013163600937789FF13078100930606FE28
:10575800B307F70063CE0626130760003317D70098
:105768009306000083A5070003A6470013058100E0
:10577800B3C6D5003347E60023A0D70023A2E7002D
:105788008327C10437070080B3C7E7002326F10445
:10579800EFC09FA5032881000325C10083250101CF
:1057A80003264101832681018327C10103270102C2
:1057B800135D8800935C0801135C8801935B850086
:1057C800135B0501935A850113DA850093D9050106
:1057D80013D9850113548600935306019352860109
:1057E80093DF860013DF060193DE860113DE870050
:1057F80013D3070193D8870123800401A380A40150
:1058080023819401A38184012382A400A3827401CB
:1058180023836401A38354012384B400A384440133
:1058280023853401A38524012386C400A38684002C
:1058380023877400A38754002388D400A388F40125
:105848002389E401A389D401238AF400A38AC4012B
:10585800238B6400A38B140103284102238CE400EA
:10586800032581028325C102032601038326410300
:1058780083278103135D8700935C0701935D88008C
:10588800135C0801935B8801135B8500935A05013B
:10589800135A850193D9850013D9050113D48501BD
:1058A80013DF860093DE060113DE860113D387001B
:1058B80093D8070113578701935386009352060123
:1058C800935F8601A38CA401238D9401A38DE4002A
:1058D800238E0401A38EB401238F8401A38F740146
:1058E8002380A402A380640323815403A381440377
:1058F8002382B402A382340323832403A383840270
:105908002384C4022386D402A386E4032387D40312
:10591800A387C4032388F402A38864022389140399
:10592800A384740223855402A385F40393D78701C3
:105938008326C103A389F4020327010483274104B2
:1059480013DF860093DE060113DE860113538700FA
:10595800935807011358870113D5870093D507017A
:1059680013D68701238AD402A38AE403238BD403A2
:10597800A38BC403238CE402A38C6402238D140339
:10598800A38D0403238EF402A38EA402238FB402F2
:10599800A38FC4028320C1100324811083244110E3
:1059A800032901108329C10F032A810F832A410F7C
:1059B800032B010F832BC10E032C810E832C410E68
:1059C800032D010E832DC10D130101116780000005
:1059D8009306F001B386C640130730003357D7004B
:1059E80093066000B396C6006FF0DFD79306600099
:1059F80013070000930781006FF0DFD6130101FC45
:105A0800232C8102232A9102232821039384060050
:105A180013090500130406001305C100130600024C
:105A2800232E110293948400EF10D018336494004D
:105A38009305C100130509001306200223168102ED
:105A4800EFF08FA68320C10303248103832441033D
:105A5800032901031301010467800000130101FCFD
:105A680093070600232A91022328210393040500A3
:105A78001389050013060002938507001305C1006A
:105A8800232E1102232C810213840600EF1090129A
:105A98001306C1009305090013850400930610023C
:105AA80023068102EFF00FFB8320C1030324810347
:105AB80083244103032901031301010467800000C3
:105AC800638E0540130101F82328310797990000D8
